{
  "contractName": "MyNFT",
  "abi": [
    {
      "inputs": [
        {
          "internalType": "string",
          "name": "name_",
          "type": "string"
        },
        {
          "internalType": "string",
          "name": "symbol_",
          "type": "string"
        }
      ],
      "stateMutability": "nonpayable",
      "type": "constructor"
    },
    {
      "anonymous": false,
      "inputs": [
        {
          "indexed": true,
          "internalType": "address",
          "name": "owner",
          "type": "address"
        },
        {
          "indexed": true,
          "internalType": "address",
          "name": "approved",
          "type": "address"
        },
        {
          "indexed": true,
          "internalType": "uint256",
          "name": "tokenId",
          "type": "uint256"
        }
      ],
      "name": "Approval",
      "type": "event"
    },
    {
      "anonymous": false,
      "inputs": [
        {
          "indexed": true,
          "internalType": "address",
          "name": "owner",
          "type": "address"
        },
        {
          "indexed": true,
          "internalType": "address",
          "name": "operator",
          "type": "address"
        },
        {
          "indexed": false,
          "internalType": "bool",
          "name": "approved",
          "type": "bool"
        }
      ],
      "name": "ApprovalForAll",
      "type": "event"
    },
    {
      "anonymous": false,
      "inputs": [
        {
          "indexed": true,
          "internalType": "address",
          "name": "minter",
          "type": "address"
        },
        {
          "indexed": false,
          "internalType": "uint256",
          "name": "price",
          "type": "uint256"
        },
        {
          "indexed": false,
          "internalType": "uint256",
          "name": "nftID",
          "type": "uint256"
        },
        {
          "indexed": false,
          "internalType": "string",
          "name": "uri",
          "type": "string"
        }
      ],
      "name": "Minted",
      "type": "event"
    },
    {
      "anonymous": false,
      "inputs": [
        {
          "indexed": true,
          "internalType": "address",
          "name": "owner",
          "type": "address"
        },
        {
          "indexed": false,
          "internalType": "uint256",
          "name": "nftID",
          "type": "uint256"
        },
        {
          "indexed": false,
          "internalType": "bool",
          "name": "isListed",
          "type": "bool"
        }
      ],
      "name": "NftListStatus",
      "type": "event"
    },
    {
      "anonymous": false,
      "inputs": [
        {
          "indexed": true,
          "internalType": "address",
          "name": "previousOwner",
          "type": "address"
        },
        {
          "indexed": true,
          "internalType": "address",
          "name": "newOwner",
          "type": "address"
        }
      ],
      "name": "OwnershipTransferred",
      "type": "event"
    },
    {
      "anonymous": false,
      "inputs": [
        {
          "indexed": true,
          "internalType": "address",
          "name": "owner",
          "type": "address"
        },
        {
          "indexed": false,
          "internalType": "uint256",
          "name": "oldPrice",
          "type": "uint256"
        },
        {
          "indexed": false,
          "internalType": "uint256",
          "name": "newPrice",
          "type": "uint256"
        },
        {
          "indexed": false,
          "internalType": "uint256",
          "name": "nftID",
          "type": "uint256"
        }
      ],
      "name": "PriceUpdate",
      "type": "event"
    },
    {
      "anonymous": false,
      "inputs": [
        {
          "indexed": true,
          "internalType": "address",
          "name": "previousOwner",
          "type": "address"
        },
        {
          "indexed": true,
          "internalType": "address",
          "name": "newOwner",
          "type": "address"
        },
        {
          "indexed": false,
          "internalType": "uint256",
          "name": "price",
          "type": "uint256"
        },
        {
          "indexed": false,
          "internalType": "uint256",
          "name": "nftID",
          "type": "uint256"
        },
        {
          "indexed": false,
          "internalType": "string",
          "name": "uri",
          "type": "string"
        }
      ],
      "name": "Purchase",
      "type": "event"
    },
    {
      "anonymous": false,
      "inputs": [
        {
          "indexed": false,
          "internalType": "uint256",
          "name": "nftID",
          "type": "uint256"
        },
        {
          "indexed": false,
          "internalType": "uint256",
          "name": "sellerValue",
          "type": "uint256"
        },
        {
          "indexed": false,
          "internalType": "uint256",
          "name": "commissionValue",
          "type": "uint256"
        }
      ],
      "name": "Trade",
      "type": "event"
    },
    {
      "anonymous": false,
      "inputs": [
        {
          "indexed": true,
          "internalType": "address",
          "name": "from",
          "type": "address"
        },
        {
          "indexed": true,
          "internalType": "address",
          "name": "to",
          "type": "address"
        },
        {
          "indexed": true,
          "internalType": "uint256",
          "name": "tokenId",
          "type": "uint256"
        }
      ],
      "name": "Transfer",
      "type": "event"
    },
    {
      "inputs": [],
      "name": "_contractOwner",
      "outputs": [
        {
          "internalType": "address payable",
          "name": "",
          "type": "address"
        }
      ],
      "stateMutability": "view",
      "type": "function"
    },
    {
      "inputs": [
        {
          "internalType": "address",
          "name": "to",
          "type": "address"
        },
        {
          "internalType": "uint256",
          "name": "tokenId",
          "type": "uint256"
        }
      ],
      "name": "approve",
      "outputs": [],
      "stateMutability": "nonpayable",
      "type": "function"
    },
    {
      "inputs": [
        {
          "internalType": "address",
          "name": "owner",
          "type": "address"
        }
      ],
      "name": "balanceOf",
      "outputs": [
        {
          "internalType": "uint256",
          "name": "",
          "type": "uint256"
        }
      ],
      "stateMutability": "view",
      "type": "function"
    },
    {
      "inputs": [
        {
          "internalType": "uint256",
          "name": "tokenId",
          "type": "uint256"
        }
      ],
      "name": "getApproved",
      "outputs": [
        {
          "internalType": "address",
          "name": "",
          "type": "address"
        }
      ],
      "stateMutability": "view",
      "type": "function"
    },
    {
      "inputs": [
        {
          "internalType": "uint256",
          "name": "",
          "type": "uint256"
        }
      ],
      "name": "listedMap",
      "outputs": [
        {
          "internalType": "bool",
          "name": "",
          "type": "bool"
        }
      ],
      "stateMutability": "view",
      "type": "function"
    },
    {
      "inputs": [],
      "name": "name",
      "outputs": [
        {
          "internalType": "string",
          "name": "",
          "type": "string"
        }
      ],
      "stateMutability": "view",
      "type": "function"
    },
    {
      "inputs": [],
      "name": "owner",
      "outputs": [
        {
          "internalType": "address",
          "name": "",
          "type": "address"
        }
      ],
      "stateMutability": "view",
      "type": "function"
    },
    {
      "inputs": [
        {
          "internalType": "uint256",
          "name": "tokenId",
          "type": "uint256"
        }
      ],
      "name": "ownerOf",
      "outputs": [
        {
          "internalType": "address",
          "name": "",
          "type": "address"
        }
      ],
      "stateMutability": "view",
      "type": "function"
    },
    {
      "inputs": [
        {
          "internalType": "uint256",
          "name": "",
          "type": "uint256"
        }
      ],
      "name": "price",
      "outputs": [
        {
          "internalType": "uint256",
          "name": "",
          "type": "uint256"
        }
      ],
      "stateMutability": "view",
      "type": "function"
    },
    {
      "inputs": [],
      "name": "renounceOwnership",
      "outputs": [],
      "stateMutability": "nonpayable",
      "type": "function"
    },
    {
      "inputs": [
        {
          "internalType": "address",
          "name": "from",
          "type": "address"
        },
        {
          "internalType": "address",
          "name": "to",
          "type": "address"
        },
        {
          "internalType": "uint256",
          "name": "tokenId",
          "type": "uint256"
        }
      ],
      "name": "safeTransferFrom",
      "outputs": [],
      "stateMutability": "nonpayable",
      "type": "function"
    },
    {
      "inputs": [
        {
          "internalType": "address",
          "name": "from",
          "type": "address"
        },
        {
          "internalType": "address",
          "name": "to",
          "type": "address"
        },
        {
          "internalType": "uint256",
          "name": "tokenId",
          "type": "uint256"
        },
        {
          "internalType": "bytes",
          "name": "_data",
          "type": "bytes"
        }
      ],
      "name": "safeTransferFrom",
      "outputs": [],
      "stateMutability": "nonpayable",
      "type": "function"
    },
    {
      "inputs": [
        {
          "internalType": "address",
          "name": "operator",
          "type": "address"
        },
        {
          "internalType": "bool",
          "name": "approved",
          "type": "bool"
        }
      ],
      "name": "setApprovalForAll",
      "outputs": [],
      "stateMutability": "nonpayable",
      "type": "function"
    },
    {
      "inputs": [
        {
          "internalType": "bytes4",
          "name": "interfaceId",
          "type": "bytes4"
        }
      ],
      "name": "supportsInterface",
      "outputs": [
        {
          "internalType": "bool",
          "name": "",
          "type": "bool"
        }
      ],
      "stateMutability": "view",
      "type": "function"
    },
    {
      "inputs": [],
      "name": "symbol",
      "outputs": [
        {
          "internalType": "string",
          "name": "",
          "type": "string"
        }
      ],
      "stateMutability": "view",
      "type": "function"
    },
    {
      "inputs": [
        {
          "internalType": "uint256",
          "name": "index",
          "type": "uint256"
        }
      ],
      "name": "tokenByIndex",
      "outputs": [
        {
          "internalType": "uint256",
          "name": "",
          "type": "uint256"
        }
      ],
      "stateMutability": "view",
      "type": "function"
    },
    {
      "inputs": [
        {
          "internalType": "address",
          "name": "owner",
          "type": "address"
        },
        {
          "internalType": "uint256",
          "name": "index",
          "type": "uint256"
        }
      ],
      "name": "tokenOfOwnerByIndex",
      "outputs": [
        {
          "internalType": "uint256",
          "name": "",
          "type": "uint256"
        }
      ],
      "stateMutability": "view",
      "type": "function"
    },
    {
      "inputs": [],
      "name": "totalSupply",
      "outputs": [
        {
          "internalType": "uint256",
          "name": "",
          "type": "uint256"
        }
      ],
      "stateMutability": "view",
      "type": "function"
    },
    {
      "inputs": [
        {
          "internalType": "address",
          "name": "from",
          "type": "address"
        },
        {
          "internalType": "address",
          "name": "to",
          "type": "address"
        },
        {
          "internalType": "uint256",
          "name": "tokenId",
          "type": "uint256"
        }
      ],
      "name": "transferFrom",
      "outputs": [],
      "stateMutability": "nonpayable",
      "type": "function"
    },
    {
      "inputs": [
        {
          "internalType": "address",
          "name": "newOwner",
          "type": "address"
        }
      ],
      "name": "transferOwnership",
      "outputs": [],
      "stateMutability": "nonpayable",
      "type": "function"
    },
    {
      "inputs": [
        {
          "internalType": "uint256",
          "name": "tokenId",
          "type": "uint256"
        }
      ],
      "name": "tokenURI",
      "outputs": [
        {
          "internalType": "string",
          "name": "",
          "type": "string"
        }
      ],
      "stateMutability": "view",
      "type": "function"
    },
    {
      "inputs": [],
      "name": "decimals",
      "outputs": [
        {
          "internalType": "uint8",
          "name": "",
          "type": "uint8"
        }
      ],
      "stateMutability": "view",
      "type": "function"
    },
    {
      "inputs": [],
      "name": "contractOwner",
      "outputs": [
        {
          "internalType": "address",
          "name": "",
          "type": "address"
        }
      ],
      "stateMutability": "view",
      "type": "function"
    },
    {
      "inputs": [
        {
          "internalType": "uint256",
          "name": "_tokenId",
          "type": "uint256"
        },
        {
          "internalType": "string",
          "name": "_tokenURI",
          "type": "string"
        },
        {
          "internalType": "address",
          "name": "_toAddress",
          "type": "address"
        },
        {
          "internalType": "uint256",
          "name": "_price",
          "type": "uint256"
        }
      ],
      "name": "mint",
      "outputs": [
        {
          "internalType": "uint256",
          "name": "",
          "type": "uint256"
        }
      ],
      "stateMutability": "nonpayable",
      "type": "function"
    },
    {
      "inputs": [
        {
          "internalType": "uint256",
          "name": "_tokenId",
          "type": "uint256"
        },
        {
          "internalType": "string",
          "name": "_tokenURI",
          "type": "string"
        },
        {
          "internalType": "uint256",
          "name": "_price",
          "type": "uint256"
        }
      ],
      "name": "buyAndMint",
      "outputs": [
        {
          "internalType": "uint256",
          "name": "",
          "type": "uint256"
        }
      ],
      "stateMutability": "nonpayable",
      "type": "function"
    },
    {
      "inputs": [
        {
          "internalType": "uint256",
          "name": "_id",
          "type": "uint256"
        }
      ],
      "name": "buy",
      "outputs": [],
      "stateMutability": "payable",
      "type": "function"
    },
    {
      "inputs": [
        {
          "internalType": "uint256",
          "name": "_tokenId",
          "type": "uint256"
        },
        {
          "internalType": "uint256",
          "name": "_price",
          "type": "uint256"
        }
      ],
      "name": "updatePrice",
      "outputs": [
        {
          "internalType": "bool",
          "name": "",
          "type": "bool"
        }
      ],
      "stateMutability": "nonpayable",
      "type": "function"
    },
    {
      "inputs": [
        {
          "internalType": "uint256",
          "name": "_tokenId",
          "type": "uint256"
        },
        {
          "internalType": "bool",
          "name": "shouldBeListed",
          "type": "bool"
        }
      ],
      "name": "updateListingStatus",
      "outputs": [
        {
          "internalType": "bool",
          "name": "",
          "type": "bool"
        }
      ],
      "stateMutability": "nonpayable",
      "type": "function"
    },
    {
      "inputs": [
        {
          "internalType": "address",
          "name": "_owner",
          "type": "address"
        },
        {
          "internalType": "address",
          "name": "_operator",
          "type": "address"
        }
      ],
      "name": "isApprovedForAll",
      "outputs": [
        {
          "internalType": "bool",
          "name": "isOperator",
          "type": "bool"
        }
      ],
      "stateMutability": "view",
      "type": "function"
    }
  ],
  "bytecode": "0x60806040523480156200001157600080fd5b5060405162004dbe38038062004dbe8339818101604052810190620000379190620003f1565b8181816000908051906020019062000051929190620001a4565b5080600190805190602001906200006a929190620001a4565b5050506200008d62000081620000d660201b60201c565b620000de60201b60201c565b33600b60006101000a81548173ffffffffffffffffffffffffffffffffffffffff021916908373ffffffffffffffffffffffffffffffffffffffff1602179055505050620004db565b600033905090565b6000600a60009054906101000a900473ffffffffffffffffffffffffffffffffffffffff16905081600a60006101000a81548173ffffffffffffffffffffffffffffffffffffffff021916908373ffffffffffffffffffffffffffffffffffffffff1602179055508173ffffffffffffffffffffffffffffffffffffffff168173ffffffffffffffffffffffffffffffffffffffff167f8be0079c531659141344cd1fd0a4f28419497f9722a3daafe3b4186f6b6457e060405160405180910390a35050565b828054620001b290620004a5565b90600052602060002090601f016020900481019282620001d6576000855562000222565b82601f10620001f157805160ff191683800117855562000222565b8280016001018555821562000222579182015b828111156200022157825182559160200191906001019062000204565b5b50905062000231919062000235565b5090565b5b808211156200025057600081600090555060010162000236565b5090565b6000604051905090565b600080fd5b600080fd5b600080fd5b600080fd5b6000601f19601f8301169050919050565b7f4e487b7100000000000000000000000000000000000000000000000000000000600052604160045260246000fd5b620002bd8262000272565b810181811067ffffffffffffffff82111715620002df57620002de62000283565b5b80604052505050565b6000620002f462000254565b9050620003028282620002b2565b919050565b600067ffffffffffffffff82111562000325576200032462000283565b5b620003308262000272565b9050602081019050919050565b60005b838110156200035d57808201518184015260208101905062000340565b838111156200036d576000848401525b50505050565b60006200038a620003848462000307565b620002e8565b905082815260208101848484011115620003a957620003a86200026d565b5b620003b68482856200033d565b509392505050565b600082601f830112620003d657620003d562000268565b5b8151620003e884826020860162000373565b91505092915050565b600080604083850312156200040b576200040a6200025e565b5b600083015167ffffffffffffffff8111156200042c576200042b62000263565b5b6200043a85828601620003be565b925050602083015167ffffffffffffffff8111156200045e576200045d62000263565b5b6200046c85828601620003be565b9150509250929050565b7f4e487b7100000000000000000000000000000000000000000000000000000000600052602260045260246000fd5b60006002820490506001821680620004be57607f821691505b60208210811415620004d557620004d462000476565b5b50919050565b6148d380620004eb6000396000f3fe6080604052600436106101c25760003560e01c8063715018a6116100f7578063b88d4fde11610095578063ce606ee011610064578063ce606ee0146106c6578063d96a094a146106f1578063e985e9c51461070d578063f2fde38b1461074a576101c2565b8063b88d4fde146105e6578063bc8ba28f1461060f578063c87b56dd1461064c578063cc02863b14610689576101c2565b80638da5cb5b116100d15780638da5cb5b1461052a57806395d89b411461055557806398214bcb14610580578063a22cb465146105bd576101c2565b8063715018a6146104995780637b71b671146104b057806382367b2d146104ed576101c2565b80632bb3b1141161016457806342842e0e1161013e57806342842e0e146103b95780634f6ccce7146103e25780636352211e1461041f57806370a082311461045c576101c2565b80632bb3b114146103265780632f745c5914610351578063313ce5671461038e576101c2565b8063095ea7b3116101a0578063095ea7b31461026c57806318160ddd1461029557806323b872dd146102c057806326a49e37146102e9576101c2565b806301ffc9a7146101c757806306fdde0314610204578063081812fc1461022f575b600080fd5b3480156101d357600080fd5b506101ee60048036038101906101e99190612f35565b610773565b6040516101fb9190612f7d565b60405180910390f35b34801561021057600080fd5b506102196107ed565b6040516102269190613031565b60405180910390f35b34801561023b57600080fd5b5061025660048036038101906102519190613089565b61087f565b60405161026391906130f7565b60405180910390f35b34801561027857600080fd5b50610293600480360381019061028e919061313e565b610904565b005b3480156102a157600080fd5b506102aa610a1c565b6040516102b7919061318d565b60405180910390f35b3480156102cc57600080fd5b506102e760048036038101906102e291906131a8565b610a29565b005b3480156102f557600080fd5b50610310600480360381019061030b9190613089565b610a89565b60405161031d919061318d565b60405180910390f35b34801561033257600080fd5b5061033b610aa1565b604051610348919061321c565b60405180910390f35b34801561035d57600080fd5b506103786004803603810190610373919061313e565b610ac7565b604051610385919061318d565b60405180910390f35b34801561039a57600080fd5b506103a3610b6c565b6040516103b09190613253565b60405180910390f35b3480156103c557600080fd5b506103e060048036038101906103db91906131a8565b610b71565b005b3480156103ee57600080fd5b5061040960048036038101906104049190613089565b610b91565b604051610416919061318d565b60405180910390f35b34801561042b57600080fd5b5061044660048036038101906104419190613089565b610c02565b60405161045391906130f7565b60405180910390f35b34801561046857600080fd5b50610483600480360381019061047e919061326e565b610cb4565b604051610490919061318d565b60405180910390f35b3480156104a557600080fd5b506104ae610d6c565b005b3480156104bc57600080fd5b506104d760048036038101906104d291906133d0565b610df4565b6040516104e4919061318d565b60405180910390f35b3480156104f957600080fd5b50610514600480360381019061050f9190613453565b610eab565b6040516105219190612f7d565b60405180910390f35b34801561053657600080fd5b5061053f610faf565b60405161054c91906130f7565b60405180910390f35b34801561056157600080fd5b5061056a610fd9565b6040516105779190613031565b60405180910390f35b34801561058c57600080fd5b506105a760048036038101906105a291906134bf565b61106b565b6040516105b49190612f7d565b60405180910390f35b3480156105c957600080fd5b506105e460048036038101906105df91906134ff565b611168565b005b3480156105f257600080fd5b5061060d600480360381019061060891906135e0565b6112e9565b005b34801561061b57600080fd5b5061063660048036038101906106319190613089565b61134b565b6040516106439190612f7d565b60405180910390f35b34801561065857600080fd5b50610673600480360381019061066e9190613089565b61136b565b6040516106809190613031565b60405180910390f35b34801561069557600080fd5b506106b060048036038101906106ab9190613663565b6114bd565b6040516106bd919061318d565b60405180910390f35b3480156106d257600080fd5b506106db611613565b6040516106e891906130f7565b60405180910390f35b61070b60048036038101906107069190613089565b61163d565b005b34801561071957600080fd5b50610734600480360381019061072f91906136d2565b6116ea565b6040516107419190612f7d565b60405180910390f35b34801561075657600080fd5b50610771600480360381019061076c919061326e565b611750565b005b60007f780e9d63000000000000000000000000000000000000000000000000000000007bffffffffffffffffffffffffffffffffffffffffffffffffffffffff1916827bffffffffffffffffffffffffffffffffffffffffffffffffffffffff191614806107e657506107e582611848565b5b9050919050565b6060600080546107fc90613741565b80601f016020809104026020016040519081016040528092919081815260200182805461082890613741565b80156108755780601f1061084a57610100808354040283529160200191610875565b820191906000526020600020905b81548152906001019060200180831161085857829003601f168201915b5050505050905090565b600061088a8261192a565b6108c9576040517f08c379a00000000000000000000000000000000000000000000000000000000081526004016108c0906137e5565b60405180910390fd5b6004600083815260200190815260200160002060009054906101000a900473ffffffffffffffffffffffffffffffffffffffff169050919050565b600061090f82610c02565b90508073ffffffffffffffffffffffffffffffffffffffff168373ffffffffffffffffffffffffffffffffffffffff161415610980576040517f08c379a000000000000000000000000000000000000000000000000000000000815260040161097790613877565b60405180910390fd5b8073ffffffffffffffffffffffffffffffffffffffff1661099f611996565b73ffffffffffffffffffffffffffffffffffffffff1614806109ce57506109cd816109c8611996565b6116ea565b5b610a0d576040517f08c379a0000000000000000000000000000000000000000000000000000000008152600401610a0490613909565b60405180910390fd5b610a17838361199e565b505050565b6000600880549050905090565b610a3a610a34611996565b82611a57565b610a79576040517f08c379a0000000000000000000000000000000000000000000000000000000008152600401610a709061399b565b60405180910390fd5b610a84838383611b35565b505050565b600c6020528060005260406000206000915090505481565b600b60009054906101000a900473ffffffffffffffffffffffffffffffffffffffff1681565b6000610ad283610cb4565b8210610b13576040517f08c379a0000000000000000000000000000000000000000000000000000000008152600401610b0a90613a2d565b60405180910390fd5b600660008473ffffffffffffffffffffffffffffffffffffffff1673ffffffffffffffffffffffffffffffffffffffff168152602001908152602001600020600083815260200190815260200160002054905092915050565b600090565b610b8c838383604051806020016040528060008152506112e9565b505050565b6000610b9b610a1c565b8210610bdc576040517f08c379a0000000000000000000000000000000000000000000000000000000008152600401610bd390613abf565b60405180910390fd5b60088281548110610bf057610bef613adf565b5b90600052602060002001549050919050565b6000806002600084815260200190815260200160002060009054906101000a900473ffffffffffffffffffffffffffffffffffffffff169050600073ffffffffffffffffffffffffffffffffffffffff168173ffffffffffffffffffffffffffffffffffffffff161415610cab576040517f08c379a0000000000000000000000000000000000000000000000000000000008152600401610ca290613b80565b60405180910390fd5b80915050919050565b60008073ffffffffffffffffffffffffffffffffffffffff168273ffffffffffffffffffffffffffffffffffffffff161415610d25576040517f08c379a0000000000000000000000000000000000000000000000000000000008152600401610d1c90613c12565b60405180910390fd5b600360008373ffffffffffffffffffffffffffffffffffffffff1673ffffffffffffffffffffffffffffffffffffffff168152602001908152602001600020549050919050565b610d74611996565b73ffffffffffffffffffffffffffffffffffffffff16610d92610faf565b73ffffffffffffffffffffffffffffffffffffffff1614610de8576040517f08c379a0000000000000000000000000000000000000000000000000000000008152600401610ddf90613c7e565b60405180910390fd5b610df26000611d91565b565b600081600c6000878152602001908152602001600020819055506001600d600087815260200190815260200160002060006101000a81548160ff021916908315150217905550610e448386611e57565b610e4e8585611e75565b8273ffffffffffffffffffffffffffffffffffffffff167ff2cb5e52049d127ad1c335f1cc25f2fdbc911bec1beb2611f4c1e8b1c274d4b4838787604051610e9893929190613c9e565b60405180910390a2849050949350505050565b600080600c6000858152602001908152602001600020549050610ecd84610c02565b73ffffffffffffffffffffffffffffffffffffffff163373ffffffffffffffffffffffffffffffffffffffff1614610f3a576040517f08c379a0000000000000000000000000000000000000000000000000000000008152600401610f3190613d28565b60405180910390fd5b82600c6000868152602001908152602001600020819055503373ffffffffffffffffffffffffffffffffffffffff167f8647dab5101cbe18afb171756e9753802f9d66725bf2346b079b8b1a275e0116828587604051610f9c93929190613d48565b60405180910390a2600191505092915050565b6000600a60009054906101000a900473ffffffffffffffffffffffffffffffffffffffff16905090565b606060018054610fe890613741565b80601f016020809104026020016040519081016040528092919081815260200182805461101490613741565b80156110615780601f1061103657610100808354040283529160200191611061565b820191906000526020600020905b81548152906001019060200180831161104457829003601f168201915b5050505050905090565b600061107683610c02565b73ffffffffffffffffffffffffffffffffffffffff163373ffffffffffffffffffffffffffffffffffffffff16146110e3576040517f08c379a00000000000000000000000000000000000000000000000000000000081526004016110da90613d28565b60405180910390fd5b81600d600085815260200190815260200160002060006101000a81548160ff0219169083151502179055503373ffffffffffffffffffffffffffffffffffffffff167f3fd63d9ca8dc693a1b9911e664951294721009a4f6239c862d6719a160a1edfc8484604051611156929190613d7f565b60405180910390a26001905092915050565b611170611996565b73ffffffffffffffffffffffffffffffffffffffff168273ffffffffffffffffffffffffffffffffffffffff1614156111de576040517f08c379a00000000000000000000000000000000000000000000000000000000081526004016111d590613df4565b60405180910390fd5b80600560006111eb611996565b73ffffffffffffffffffffffffffffffffffffffff1673ffffffffffffffffffffffffffffffffffffffff16815260200190815260200160002060008473ffffffffffffffffffffffffffffffffffffffff1673ffffffffffffffffffffffffffffffffffffffff16815260200190815260200160002060006101000a81548160ff0219169083151502179055508173ffffffffffffffffffffffffffffffffffffffff16611298611996565b73ffffffffffffffffffffffffffffffffffffffff167f17307eab39ab6107e8899845ad3d59bd9653f200f220920489ca2b5937696c31836040516112dd9190612f7d565b60405180910390a35050565b6112fa6112f4611996565b83611a57565b611339576040517f08c379a00000000000000000000000000000000000000000000000000000000081526004016113309061399b565b60405180910390fd5b61134584848484611ee9565b50505050565b600d6020528060005260406000206000915054906101000a900460ff1681565b60606113768261192a565b6113b5576040517f08c379a00000000000000000000000000000000000000000000000000000000081526004016113ac90613e86565b60405180910390fd5b6000600e600084815260200190815260200160002080546113d590613741565b80601f016020809104026020016040519081016040528092919081815260200182805461140190613741565b801561144e5780601f106114235761010080835404028352916020019161144e565b820191906000526020600020905b81548152906001019060200180831161143157829003601f168201915b50505050509050600061145f611f45565b90506000815114156114755781925050506114b8565b6000825111156114aa578082604051602001611492929190613ee2565b604051602081830303815290604052925050506114b8565b6114b384611f5c565b925050505b919050565b60006114c88461192a565b15611508576040517f08c379a00000000000000000000000000000000000000000000000000000000081526004016114ff90613f52565b60405180910390fd5b6000339050600b60009054906101000a900473ffffffffffffffffffffffffffffffffffffffff1673ffffffffffffffffffffffffffffffffffffffff166108fc849081150290604051600060405180830381858888f19350505050158015611575573d6000803e3d6000fd5b5061158285858386610df4565b508073ffffffffffffffffffffffffffffffffffffffff16600073ffffffffffffffffffffffffffffffffffffffff167fef258f47a33a1cba99d81ea828f234ff5d6cb31034c0f79ecb5198f8c6d118f6600c600089815260200190815260200160002054886115f18a61136b565b60405161160093929190613c9e565b60405180910390a3849150509392505050565b6000600b60009054906101000a900473ffffffffffffffffffffffffffffffffffffffff16905090565b61164681612003565b600061165182610c02565b9050600033905061166183612181565b8073ffffffffffffffffffffffffffffffffffffffff168273ffffffffffffffffffffffffffffffffffffffff167fef258f47a33a1cba99d81ea828f234ff5d6cb31034c0f79ecb5198f8c6d118f6600c600087815260200190815260200160002054866116ce8861136b565b6040516116dd93929190613c9e565b60405180910390a3505050565b60007358807bad0b376efc12f5ad86aac70e78ed67deae73ffffffffffffffffffffffffffffffffffffffff168273ffffffffffffffffffffffffffffffffffffffff16141561173d576001905061174a565b61174783836123a9565b90505b92915050565b611758611996565b73ffffffffffffffffffffffffffffffffffffffff16611776610faf565b73ffffffffffffffffffffffffffffffffffffffff16146117cc576040517f08c379a00000000000000000000000000000000000000000000000000000000081526004016117c390613c7e565b60405180910390fd5b600073ffffffffffffffffffffffffffffffffffffffff168173ffffffffffffffffffffffffffffffffffffffff16141561183c576040517f08c379a000000000000000000000000000000000000000000000000000000000815260040161183390613fe4565b60405180910390fd5b61184581611d91565b50565b60007f80ac58cd000000000000000000000000000000000000000000000000000000007bffffffffffffffffffffffffffffffffffffffffffffffffffffffff1916827bffffffffffffffffffffffffffffffffffffffffffffffffffffffff1916148061191357507f5b5e139f000000000000000000000000000000000000000000000000000000007bffffffffffffffffffffffffffffffffffffffffffffffffffffffff1916827bffffffffffffffffffffffffffffffffffffffffffffffffffffffff1916145b8061192357506119228261243d565b5b9050919050565b60008073ffffffffffffffffffffffffffffffffffffffff166002600084815260200190815260200160002060009054906101000a900473ffffffffffffffffffffffffffffffffffffffff1673ffffffffffffffffffffffffffffffffffffffff1614159050919050565b600033905090565b816004600083815260200190815260200160002060006101000a81548173ffffffffffffffffffffffffffffffffffffffff021916908373ffffffffffffffffffffffffffffffffffffffff160217905550808273ffffffffffffffffffffffffffffffffffffffff16611a1183610c02565b73ffffffffffffffffffffffffffffffffffffffff167f8c5be1e5ebec7d5bd14f71427d1e84f3dd0314c0f7b2291e5b200ac8c7c3b92560405160405180910390a45050565b6000611a628261192a565b611aa1576040517f08c379a0000000000000000000000000000000000000000000000000000000008152600401611a9890614076565b60405180910390fd5b6000611aac83610c02565b90508073ffffffffffffffffffffffffffffffffffffffff168473ffffffffffffffffffffffffffffffffffffffff161480611b1b57508373ffffffffffffffffffffffffffffffffffffffff16611b038461087f565b73ffffffffffffffffffffffffffffffffffffffff16145b80611b2c5750611b2b81856116ea565b5b91505092915050565b8273ffffffffffffffffffffffffffffffffffffffff16611b5582610c02565b73ffffffffffffffffffffffffffffffffffffffff1614611bab576040517f08c379a0000000000000000000000000000000000000000000000000000000008152600401611ba290614108565b60405180910390fd5b600073ffffffffffffffffffffffffffffffffffffffff168273ffffffffffffffffffffffffffffffffffffffff161415611c1b576040517f08c379a0000000000000000000000000000000000000000000000000000000008152600401611c129061419a565b60405180910390fd5b611c268383836124a7565b611c3160008261199e565b6001600360008573ffffffffffffffffffffffffffffffffffffffff1673ffffffffffffffffffffffffffffffffffffffff1681526020019081526020016000206000828254611c8191906141e9565b925050819055506001600360008473ffffffffffffffffffffffffffffffffffffffff1673ffffffffffffffffffffffffffffffffffffffff1681526020019081526020016000206000828254611cd8919061421d565b92505081905550816002600083815260200190815260200160002060006101000a81548173ffffffffffffffffffffffffffffffffffffffff021916908373ffffffffffffffffffffffffffffffffffffffff160217905550808273ffffffffffffffffffffffffffffffffffffffff168473ffffffffffffffffffffffffffffffffffffffff167fddf252ad1be2c89b69c2b068fc378daa952ba7f163c4a11628f55a4df523b3ef60405160405180910390a4505050565b6000600a60009054906101000a900473ffffffffffffffffffffffffffffffffffffffff16905081600a60006101000a81548173ffffffffffffffffffffffffffffffffffffffff021916908373ffffffffffffffffffffffffffffffffffffffff1602179055508173ffffffffffffffffffffffffffffffffffffffff168173ffffffffffffffffffffffffffffffffffffffff167f8be0079c531659141344cd1fd0a4f28419497f9722a3daafe3b4186f6b6457e060405160405180910390a35050565b611e718282604051806020016040528060008152506125bb565b5050565b611e7e8261192a565b611ebd576040517f08c379a0000000000000000000000000000000000000000000000000000000008152600401611eb4906142e5565b60405180910390fd5b80600e60008481526020019081526020016000209080519060200190611ee4929190612e26565b505050565b611ef4848484611b35565b611f0084848484612616565b611f3f576040517f08c379a0000000000000000000000000000000000000000000000000000000008152600401611f3690614377565b60405180910390fd5b50505050565b606060405180602001604052806000815250905090565b6060611f678261192a565b611fa6576040517f08c379a0000000000000000000000000000000000000000000000000000000008152600401611f9d90614409565b60405180910390fd5b6000611fb0611f45565b90506000815111611fd05760405180602001604052806000815250611ffb565b80611fda846127ad565b604051602001611feb929190613ee2565b6040516020818303038152906040525b915050919050565b6000600d600083815260200190815260200160002060009054906101000a900460ff1690506120318261192a565b612070576040517f08c379a000000000000000000000000000000000000000000000000000000000815260040161206790614475565b60405180910390fd5b806120b0576040517f08c379a00000000000000000000000000000000000000000000000000000000081526004016120a7906144e1565b60405180910390fd5b600c600083815260200190815260200160002054341015612106576040517f08c379a00000000000000000000000000000000000000000000000000000000081526004016120fd9061454d565b60405180910390fd5b61210f82610c02565b73ffffffffffffffffffffffffffffffffffffffff163373ffffffffffffffffffffffffffffffffffffffff16141561217d576040517f08c379a0000000000000000000000000000000000000000000000000000000008152600401612174906145b9565b60405180910390fd5b5050565b6000339050600061219183610c02565b90506121ae81838560405180602001604052806000815250611ee9565b60006121d76064600c60008781526020019081526020016000205461290e90919063ffffffff16565b9050600061220182600c60008881526020019081526020016000205461292490919063ffffffff16565b90508273ffffffffffffffffffffffffffffffffffffffff166108fc829081150290604051600060405180830381858888f19350505050158015612249573d6000803e3d6000fd5b50600b60009054906101000a900473ffffffffffffffffffffffffffffffffffffffff1673ffffffffffffffffffffffffffffffffffffffff166108fc839081150290604051600060405180830381858888f193505050501580156122b2573d6000803e3d6000fd5b50600c60008681526020019081526020016000205434111561233b578373ffffffffffffffffffffffffffffffffffffffff166108fc61230e600c6000898152602001908152602001600020543461292490919063ffffffff16565b9081150290604051600060405180830381858888f19350505050158015612339573d6000803e3d6000fd5b505b6000600d600087815260200190815260200160002060006101000a81548160ff0219169083151502179055507f1944290154176f4c0b5d8339910ce66de9f4a57a21c3737bb4b212644c73577685828460405161239a93929190613d48565b60405180910390a15050505050565b6000600560008473ffffffffffffffffffffffffffffffffffffffff1673ffffffffffffffffffffffffffffffffffffffff16815260200190815260200160002060008373ffffffffffffffffffffffffffffffffffffffff1673ffffffffffffffffffffffffffffffffffffffff16815260200190815260200160002060009054906101000a900460ff16905092915050565b60007f01ffc9a7000000000000000000000000000000000000000000000000000000007bffffffffffffffffffffffffffffffffffffffffffffffffffffffff1916827bffffffffffffffffffffffffffffffffffffffffffffffffffffffff1916149050919050565b6124b283838361293a565b600073ffffffffffffffffffffffffffffffffffffffff168373ffffffffffffffffffffffffffffffffffffffff1614156124f5576124f08161293f565b612534565b8173ffffffffffffffffffffffffffffffffffffffff168373ffffffffffffffffffffffffffffffffffffffff1614612533576125328382612988565b5b5b600073ffffffffffffffffffffffffffffffffffffffff168273ffffffffffffffffffffffffffffffffffffffff1614156125775761257281612af5565b6125b6565b8273ffffffffffffffffffffffffffffffffffffffff168273ffffffffffffffffffffffffffffffffffffffff16146125b5576125b48282612bc6565b5b5b505050565b6125c58383612c45565b6125d26000848484612616565b612611576040517f08c379a000000000000000000000000000000000000000000000000000000000815260040161260890614377565b60405180910390fd5b505050565b60006126378473ffffffffffffffffffffffffffffffffffffffff16612e13565b156127a0578373ffffffffffffffffffffffffffffffffffffffff1663150b7a02612660611996565b8786866040518563ffffffff1660e01b8152600401612682949392919061462e565b602060405180830381600087803b15801561269c57600080fd5b505af19250505080156126cd57506040513d601f19601f820116820180604052508101906126ca919061468f565b60015b612750573d80600081146126fd576040519150601f19603f3d011682016040523d82523d6000602084013e612702565b606091505b50600081511415612748576040517f08c379a000000000000000000000000000000000000000000000000000000000815260040161273f90614377565b60405180910390fd5b805181602001fd5b63150b7a0260e01b7bffffffffffffffffffffffffffffffffffffffffffffffffffffffff1916817bffffffffffffffffffffffffffffffffffffffffffffffffffffffff1916149150506127a5565b600190505b949350505050565b606060008214156127f5576040518060400160405280600181526020017f30000000000000000000000000000000000000000000000000000000000000008152509050612909565b600082905060005b60008214612827578080612810906146bc565b915050600a826128209190614734565b91506127fd565b60008167ffffffffffffffff811115612843576128426132a5565b5b6040519080825280601f01601f1916602001820160405280156128755781602001600182028036833780820191505090505b5090505b600085146129025760018261288e91906141e9565b9150600a8561289d9190614765565b60306128a9919061421d565b60f81b8183815181106128bf576128be613adf565b5b60200101907effffffffffffffffffffffffffffffffffffffffffffffffffffffffffffff1916908160001a905350600a856128fb9190614734565b9450612879565b8093505050505b919050565b6000818361291c9190614734565b905092915050565b6000818361293291906141e9565b905092915050565b505050565b6008805490506009600083815260200190815260200160002081905550600881908060018154018082558091505060019003906000526020600020016000909190919091505550565b6000600161299584610cb4565b61299f91906141e9565b9050600060076000848152602001908152602001600020549050818114612a84576000600660008673ffffffffffffffffffffffffffffffffffffffff1673ffffffffffffffffffffffffffffffffffffffff168152602001908152602001600020600084815260200190815260200160002054905080600660008773ffffffffffffffffffffffffffffffffffffffff1673ffffffffffffffffffffffffffffffffffffffff168152602001908152602001600020600084815260200190815260200160002081905550816007600083815260200190815260200160002081905550505b6007600084815260200190815260200160002060009055600660008573ffffffffffffffffffffffffffffffffffffffff1673ffffffffffffffffffffffffffffffffffffffff16815260200190815260200160002060008381526020019081526020016000206000905550505050565b60006001600880549050612b0991906141e9565b9050600060096000848152602001908152602001600020549050600060088381548110612b3957612b38613adf565b5b906000526020600020015490508060088381548110612b5b57612b5a613adf565b5b906000526020600020018190555081600960008381526020019081526020016000208190555060096000858152602001908152602001600020600090556008805480612baa57612ba9614796565b5b6001900381819060005260206000200160009055905550505050565b6000612bd183610cb4565b905081600660008573ffffffffffffffffffffffffffffffffffffffff1673ffffffffffffffffffffffffffffffffffffffff168152602001908152602001600020600083815260200190815260200160002081905550806007600084815260200190815260200160002081905550505050565b600073ffffffffffffffffffffffffffffffffffffffff168273ffffffffffffffffffffffffffffffffffffffff161415612cb5576040517f08c379a0000000000000000000000000000000000000000000000000000000008152600401612cac90614811565b60405180910390fd5b612cbe8161192a565b15612cfe576040517f08c379a0000000000000000000000000000000000000000000000000000000008152600401612cf59061487d565b60405180910390fd5b612d0a600083836124a7565b6001600360008473ffffffffffffffffffffffffffffffffffffffff1673ffffffffffffffffffffffffffffffffffffffff1681526020019081526020016000206000828254612d5a919061421d565b92505081905550816002600083815260200190815260200160002060006101000a81548173ffffffffffffffffffffffffffffffffffffffff021916908373ffffffffffffffffffffffffffffffffffffffff160217905550808273ffffffffffffffffffffffffffffffffffffffff16600073ffffffffffffffffffffffffffffffffffffffff167fddf252ad1be2c89b69c2b068fc378daa952ba7f163c4a11628f55a4df523b3ef60405160405180910390a45050565b600080823b905060008111915050919050565b828054612e3290613741565b90600052602060002090601f016020900481019282612e545760008555612e9b565b82601f10612e6d57805160ff1916838001178555612e9b565b82800160010185558215612e9b579182015b82811115612e9a578251825591602001919060010190612e7f565b5b509050612ea89190612eac565b5090565b5b80821115612ec5576000816000905550600101612ead565b5090565b6000604051905090565b600080fd5b600080fd5b60007fffffffff0000000000000000000000000000000000000000000000000000000082169050919050565b612f1281612edd565b8114612f1d57600080fd5b50565b600081359050612f2f81612f09565b92915050565b600060208284031215612f4b57612f4a612ed3565b5b6000612f5984828501612f20565b91505092915050565b60008115159050919050565b612f7781612f62565b82525050565b6000602082019050612f926000830184612f6e565b92915050565b600081519050919050565b600082825260208201905092915050565b60005b83811015612fd2578082015181840152602081019050612fb7565b83811115612fe1576000848401525b50505050565b6000601f19601f8301169050919050565b600061300382612f98565b61300d8185612fa3565b935061301d818560208601612fb4565b61302681612fe7565b840191505092915050565b6000602082019050818103600083015261304b8184612ff8565b905092915050565b6000819050919050565b61306681613053565b811461307157600080fd5b50565b6000813590506130838161305d565b92915050565b60006020828403121561309f5761309e612ed3565b5b60006130ad84828501613074565b91505092915050565b600073ffffffffffffffffffffffffffffffffffffffff82169050919050565b60006130e1826130b6565b9050919050565b6130f1816130d6565b82525050565b600060208201905061310c60008301846130e8565b92915050565b61311b816130d6565b811461312657600080fd5b50565b60008135905061313881613112565b92915050565b6000806040838503121561315557613154612ed3565b5b600061316385828601613129565b925050602061317485828601613074565b9150509250929050565b61318781613053565b82525050565b60006020820190506131a2600083018461317e565b92915050565b6000806000606084860312156131c1576131c0612ed3565b5b60006131cf86828701613129565b93505060206131e086828701613129565b92505060406131f186828701613074565b9150509250925092565b6000613206826130b6565b9050919050565b613216816131fb565b82525050565b6000602082019050613231600083018461320d565b92915050565b600060ff82169050919050565b61324d81613237565b82525050565b60006020820190506132686000830184613244565b92915050565b60006020828403121561328457613283612ed3565b5b600061329284828501613129565b91505092915050565b600080fd5b600080fd5b7f4e487b7100000000000000000000000000000000000000000000000000000000600052604160045260246000fd5b6132dd82612fe7565b810181811067ffffffffffffffff821117156132fc576132fb6132a5565b5b80604052505050565b600061330f612ec9565b905061331b82826132d4565b919050565b600067ffffffffffffffff82111561333b5761333a6132a5565b5b61334482612fe7565b9050602081019050919050565b82818337600083830152505050565b600061337361336e84613320565b613305565b90508281526020810184848401111561338f5761338e6132a0565b5b61339a848285613351565b509392505050565b600082601f8301126133b7576133b661329b565b5b81356133c7848260208601613360565b91505092915050565b600080600080608085870312156133ea576133e9612ed3565b5b60006133f887828801613074565b945050602085013567ffffffffffffffff81111561341957613418612ed8565b5b613425878288016133a2565b935050604061343687828801613129565b925050606061344787828801613074565b91505092959194509250565b6000806040838503121561346a57613469612ed3565b5b600061347885828601613074565b925050602061348985828601613074565b9150509250929050565b61349c81612f62565b81146134a757600080fd5b50565b6000813590506134b981613493565b92915050565b600080604083850312156134d6576134d5612ed3565b5b60006134e485828601613074565b92505060206134f5858286016134aa565b9150509250929050565b6000806040838503121561351657613515612ed3565b5b600061352485828601613129565b9250506020613535858286016134aa565b9150509250929050565b600067ffffffffffffffff82111561355a576135596132a5565b5b61356382612fe7565b9050602081019050919050565b600061358361357e8461353f565b613305565b90508281526020810184848401111561359f5761359e6132a0565b5b6135aa848285613351565b509392505050565b600082601f8301126135c7576135c661329b565b5b81356135d7848260208601613570565b91505092915050565b600080600080608085870312156135fa576135f9612ed3565b5b600061360887828801613129565b945050602061361987828801613129565b935050604061362a87828801613074565b925050606085013567ffffffffffffffff81111561364b5761364a612ed8565b5b613657878288016135b2565b91505092959194509250565b60008060006060848603121561367c5761367b612ed3565b5b600061368a86828701613074565b935050602084013567ffffffffffffffff8111156136ab576136aa612ed8565b5b6136b7868287016133a2565b92505060406136c886828701613074565b9150509250925092565b600080604083850312156136e9576136e8612ed3565b5b60006136f785828601613129565b925050602061370885828601613129565b9150509250929050565b7f4e487b7100000000000000000000000000000000000000000000000000000000600052602260045260246000fd5b6000600282049050600182168061375957607f821691505b6020821081141561376d5761376c613712565b5b50919050565b7f4552433732313a20617070726f76656420717565727920666f72206e6f6e657860008201527f697374656e7420746f6b656e0000000000000000000000000000000000000000602082015250565b60006137cf602c83612fa3565b91506137da82613773565b604082019050919050565b600060208201905081810360008301526137fe816137c2565b9050919050565b7f4552433732313a20617070726f76616c20746f2063757272656e74206f776e6560008201527f7200000000000000000000000000000000000000000000000000000000000000602082015250565b6000613861602183612fa3565b915061386c82613805565b604082019050919050565b6000602082019050818103600083015261389081613854565b9050919050565b7f4552433732313a20617070726f76652063616c6c6572206973206e6f74206f7760008201527f6e6572206e6f7220617070726f76656420666f7220616c6c0000000000000000602082015250565b60006138f3603883612fa3565b91506138fe82613897565b604082019050919050565b60006020820190508181036000830152613922816138e6565b9050919050565b7f4552433732313a207472616e736665722063616c6c6572206973206e6f74206f60008201527f776e6572206e6f7220617070726f766564000000000000000000000000000000602082015250565b6000613985603183612fa3565b915061399082613929565b604082019050919050565b600060208201905081810360008301526139b481613978565b9050919050565b7f455243373231456e756d657261626c653a206f776e657220696e646578206f7560008201527f74206f6620626f756e6473000000000000000000000000000000000000000000602082015250565b6000613a17602b83612fa3565b9150613a22826139bb565b604082019050919050565b60006020820190508181036000830152613a4681613a0a565b9050919050565b7f455243373231456e756d657261626c653a20676c6f62616c20696e646578206f60008201527f7574206f6620626f756e64730000000000000000000000000000000000000000602082015250565b6000613aa9602c83612fa3565b9150613ab482613a4d565b604082019050919050565b60006020820190508181036000830152613ad881613a9c565b9050919050565b7f4e487b7100000000000000000000000000000000000000000000000000000000600052603260045260246000fd5b7f4552433732313a206f776e657220717565727920666f72206e6f6e657869737460008201527f656e7420746f6b656e0000000000000000000000000000000000000000000000602082015250565b6000613b6a602983612fa3565b9150613b7582613b0e565b604082019050919050565b60006020820190508181036000830152613b9981613b5d565b9050919050565b7f4552433732313a2062616c616e636520717565727920666f7220746865207a6560008201527f726f206164647265737300000000000000000000000000000000000000000000602082015250565b6000613bfc602a83612fa3565b9150613c0782613ba0565b604082019050919050565b60006020820190508181036000830152613c2b81613bef565b9050919050565b7f4f776e61626c653a2063616c6c6572206973206e6f7420746865206f776e6572600082015250565b6000613c68602083612fa3565b9150613c7382613c32565b602082019050919050565b60006020820190508181036000830152613c9781613c5b565b9050919050565b6000606082019050613cb3600083018661317e565b613cc0602083018561317e565b8181036040830152613cd28184612ff8565b9050949350505050565b7f4572726f722c20796f7520617265206e6f7420746865206f776e657200000000600082015250565b6000613d12601c83612fa3565b9150613d1d82613cdc565b602082019050919050565b60006020820190508181036000830152613d4181613d05565b9050919050565b6000606082019050613d5d600083018661317e565b613d6a602083018561317e565b613d77604083018461317e565b949350505050565b6000604082019050613d94600083018561317e565b613da16020830184612f6e565b9392505050565b7f4552433732313a20617070726f766520746f2063616c6c657200000000000000600082015250565b6000613dde601983612fa3565b9150613de982613da8565b602082019050919050565b60006020820190508181036000830152613e0d81613dd1565b9050919050565b7f45524337323155524953746f726167653a2055524920717565727920666f722060008201527f6e6f6e6578697374656e7420746f6b656e000000000000000000000000000000602082015250565b6000613e70603183612fa3565b9150613e7b82613e14565b604082019050919050565b60006020820190508181036000830152613e9f81613e63565b9050919050565b600081905092915050565b6000613ebc82612f98565b613ec68185613ea6565b9350613ed6818560208601612fb4565b80840191505092915050565b6000613eee8285613eb1565b9150613efa8284613eb1565b91508190509392505050565b7f4572726f722c20746f6b656e20616c7265616479206578697374730000000000600082015250565b6000613f3c601b83612fa3565b9150613f4782613f06565b602082019050919050565b60006020820190508181036000830152613f6b81613f2f565b9050919050565b7f4f776e61626c653a206e6577206f776e657220697320746865207a65726f206160008201527f6464726573730000000000000000000000000000000000000000000000000000602082015250565b6000613fce602683612fa3565b9150613fd982613f72565b604082019050919050565b60006020820190508181036000830152613ffd81613fc1565b9050919050565b7f4552433732313a206f70657261746f7220717565727920666f72206e6f6e657860008201527f697374656e7420746f6b656e0000000000000000000000000000000000000000602082015250565b6000614060602c83612fa3565b915061406b82614004565b604082019050919050565b6000602082019050818103600083015261408f81614053565b9050919050565b7f4552433732313a207472616e73666572206f6620746f6b656e2074686174206960008201527f73206e6f74206f776e0000000000000000000000000000000000000000000000602082015250565b60006140f2602983612fa3565b91506140fd82614096565b604082019050919050565b60006020820190508181036000830152614121816140e5565b9050919050565b7f4552433732313a207472616e7366657220746f20746865207a65726f2061646460008201527f7265737300000000000000000000000000000000000000000000000000000000602082015250565b6000614184602483612fa3565b915061418f82614128565b604082019050919050565b600060208201905081810360008301526141b381614177565b9050919050565b7f4e487b7100000000000000000000000000000000000000000000000000000000600052601160045260246000fd5b60006141f482613053565b91506141ff83613053565b925082821015614212576142116141ba565b5b828203905092915050565b600061422882613053565b915061423383613053565b9250827fffffffffffffffffffffffffffffffffffffffffffffffffffffffffffffffff03821115614268576142676141ba565b5b828201905092915050565b7f45524337323155524953746f726167653a2055524920736574206f66206e6f6e60008201527f6578697374656e7420746f6b656e000000000000000000000000000000000000602082015250565b60006142cf602e83612fa3565b91506142da82614273565b604082019050919050565b600060208201905081810360008301526142fe816142c2565b9050919050565b7f4552433732313a207472616e7366657220746f206e6f6e20455243373231526560008201527f63656976657220696d706c656d656e7465720000000000000000000000000000602082015250565b6000614361603283612fa3565b915061436c82614305565b604082019050919050565b6000602082019050818103600083015261439081614354565b9050919050565b7f4552433732314d657461646174613a2055524920717565727920666f72206e6f60008201527f6e6578697374656e7420746f6b656e0000000000000000000000000000000000602082015250565b60006143f3602f83612fa3565b91506143fe82614397565b604082019050919050565b60006020820190508181036000830152614422816143e6565b9050919050565b7f4572726f722c2077726f6e6720746f6b656e4964000000000000000000000000600082015250565b600061445f601483612fa3565b915061446a82614429565b602082019050919050565b6000602082019050818103600083015261448e81614452565b9050919050565b7f4974656d206e6f74206c69737465642063757272656e746c7900000000000000600082015250565b60006144cb601983612fa3565b91506144d682614495565b602082019050919050565b600060208201905081810360008301526144fa816144be565b9050919050565b7f4572726f722c2074686520616d6f756e74206973206c6f776572000000000000600082015250565b6000614537601a83612fa3565b915061454282614501565b602082019050919050565b600060208201905081810360008301526145668161452a565b9050919050565b7f43616e206e6f7420627579207768617420796f75206f776e0000000000000000600082015250565b60006145a3601883612fa3565b91506145ae8261456d565b602082019050919050565b600060208201905081810360008301526145d281614596565b9050919050565b600081519050919050565b600082825260208201905092915050565b6000614600826145d9565b61460a81856145e4565b935061461a818560208601612fb4565b61462381612fe7565b840191505092915050565b600060808201905061464360008301876130e8565b61465060208301866130e8565b61465d604083018561317e565b818103606083015261466f81846145f5565b905095945050505050565b60008151905061468981612f09565b92915050565b6000602082840312156146a5576146a4612ed3565b5b60006146b38482850161467a565b91505092915050565b60006146c782613053565b91507fffffffffffffffffffffffffffffffffffffffffffffffffffffffffffffffff8214156146fa576146f96141ba565b5b600182019050919050565b7f4e487b7100000000000000000000000000000000000000000000000000000000600052601260045260246000fd5b600061473f82613053565b915061474a83613053565b92508261475a57614759614705565b5b828204905092915050565b600061477082613053565b915061477b83613053565b92508261478b5761478a614705565b5b828206905092915050565b7f4e487b7100000000000000000000000000000000000000000000000000000000600052603160045260246000fd5b7f4552433732313a206d696e7420746f20746865207a65726f2061646472657373600082015250565b60006147fb602083612fa3565b9150614806826147c5565b602082019050919050565b6000602082019050818103600083015261482a816147ee565b9050919050565b7f4552433732313a20746f6b656e20616c7265616479206d696e74656400000000600082015250565b6000614867601c83612fa3565b915061487282614831565b602082019050919050565b600060208201905081810360008301526148968161485a565b905091905056fea26469706673582212209d0992d20ee635a5deeb24d20b5a708923d01dfdb8ad93a792bb06b3a83f31cc64736f6c63430008090033",
  "immutableReferences": {},
  "source": "// contracts/MyNFT.sol\n// SPDX-License-Identifier: MIT\npragma solidity ^0.8.0;\n\nimport \"@openzeppelin/contracts/token/ERC721/extensions/ERC721Enumerable.sol\";\nimport \"@openzeppelin/contracts/access/Ownable.sol\";\nimport \"@openzeppelin/contracts/utils/math/SafeMath.sol\";\n\ncontract MyNFT is ERC721Enumerable, Ownable {\n    using SafeMath for uint256;\n    using Strings for uint256;\n\n    address payable public _contractOwner;\n\n    mapping (uint256 => uint256) public price;\n    mapping (uint256 => bool) public listedMap;\n    mapping(uint256 => string) private _tokenURIs;\n\n    event Purchase(address indexed previousOwner, address indexed newOwner, uint256 price, uint256 nftID, string uri);\n\n    event Minted(address indexed minter, uint256 price, uint256 nftID, string uri);\n\n    event PriceUpdate(address indexed owner, uint256 oldPrice, uint256 newPrice, uint256 nftID);\n\n    event NftListStatus(address indexed owner, uint256 nftID, bool isListed);\n\n    event Trade(uint256 nftID, uint256 sellerValue, uint256 commissionValue);\n\n    /**\n     * @dev See {IERC721Metadata-tokenURI}.\n     */\n    function tokenURI(uint256 tokenId) public view virtual override returns (string memory) {\n        require(_exists(tokenId), \"ERC721URIStorage: URI query for nonexistent token\");\n\n        string memory _tokenURI = _tokenURIs[tokenId];\n        string memory base = _baseURI();\n\n        // If there is no base URI, return the token URI.\n        if (bytes(base).length == 0) {\n            return _tokenURI;\n        }\n        // If both are set, concatenate the baseURI and tokenURI (via abi.encodePacked).\n        if (bytes(_tokenURI).length > 0) {\n            return string(abi.encodePacked(base, _tokenURI));\n        }\n\n        return super.tokenURI(tokenId);\n    }\n\n    /**\n     * @dev Sets `_tokenURI` as the tokenURI of `tokenId`.\n     *\n     * Requirements:\n     *\n     * - `tokenId` must exist.\n     */\n    function _setTokenURI(uint256 tokenId, string memory _tokenURI) internal virtual {\n        require(_exists(tokenId), \"ERC721URIStorage: URI set of nonexistent token\");\n        _tokenURIs[tokenId] = _tokenURI;\n    }\n\n    /**\n     * @dev Destroys `tokenId`.\n     * The approval is cleared when the token is burned.\n     *\n     * Requirements:\n     *\n     * - `tokenId` must exist.\n     *\n     * Emits a {Transfer} event.\n     */\n    function _burn(uint256 tokenId) internal virtual override {\n        super._burn(tokenId);\n\n        if (bytes(_tokenURIs[tokenId]).length != 0) {\n            delete _tokenURIs[tokenId];\n        }\n    }\n\n    constructor(string memory name_, string memory symbol_) ERC721(name_, symbol_) {\n        _contractOwner = payable(msg.sender);\n    }\n\n    function decimals() public view virtual returns (uint8) {\n        return 0;\n    }\n\n    function contractOwner() public view virtual returns (address) {\n        return _contractOwner;\n    }\n\n    function mint(uint256 _tokenId, string memory _tokenURI, address _toAddress, uint256 _price) public returns (uint256) {\n        price[_tokenId] = _price;\n        listedMap[_tokenId] = true;\n\n        _safeMint(_toAddress, _tokenId);\n        _setTokenURI(_tokenId, _tokenURI);\n\n        emit Minted(_toAddress, _price, _tokenId, _tokenURI);\n\n        return _tokenId;\n    }\n\n    function buyAndMint(uint256 _tokenId, string memory _tokenURI, uint256 _price) public returns (uint256) {\n        require(!_exists(_tokenId), \"Error, token already exists\");\n\n        address payable _buyer = payable(msg.sender);\n        _contractOwner.transfer(_price);\n\n        mint(_tokenId, _tokenURI, _buyer, _price);\n\n        emit Purchase(address(0), _buyer, price[_tokenId], _tokenId, tokenURI(_tokenId));\n\n        return _tokenId;\n    }\n\n    function buy(uint256 _id) external payable {\n        _validate(_id);\n\n        address _previousOwner = ownerOf(_id);\n        address _newOwner = msg.sender;\n\n        _trade(_id);\n\n        emit Purchase(_previousOwner, _newOwner, price[_id], _id, tokenURI(_id));\n    }\n\n    function _validate(uint256 _id) internal {\n        bool isItemListed = listedMap[_id];\n        require(_exists(_id), \"Error, wrong tokenId\");\n        require(isItemListed, \"Item not listed currently\");\n        require(msg.value >= price[_id], \"Error, the amount is lower\");\n        require(msg.sender != ownerOf(_id), \"Can not buy what you own\");\n    }\n\n    function _trade(uint256 _id) internal {\n        address payable _buyer = payable(msg.sender);\n        address payable _owner = payable(ownerOf(_id));\n\n        _safeTransfer(_owner, _buyer, _id, \"\");\n\n        // 1% commission cut\n        uint256 _commissionValue = price[_id].div(100) ;\n        uint256 _sellerValue = price[_id].sub(_commissionValue);\n\n        _owner.transfer(_sellerValue);\n        _contractOwner.transfer(_commissionValue);\n\n        // If buyer sent more than price, we send them back their rest of funds\n        if (msg.value > price[_id]) {\n            _buyer.transfer(msg.value.sub(price[_id]));\n        }\n\n        listedMap[_id] = false;\n\n        emit Trade(_id, _sellerValue, _commissionValue);\n    }\n\n    function updatePrice(uint256 _tokenId, uint256 _price) public returns (bool) {\n        uint256 oldPrice = price[_tokenId];\n        require(msg.sender == ownerOf(_tokenId), \"Error, you are not the owner\");\n        price[_tokenId] = _price;\n\n        emit PriceUpdate(msg.sender, oldPrice, _price, _tokenId);\n        return true;\n    }\n\n    function updateListingStatus(uint256 _tokenId, bool shouldBeListed) public returns (bool) {\n        require(msg.sender == ownerOf(_tokenId), \"Error, you are not the owner\");\n\n        listedMap[_tokenId] = shouldBeListed;\n\n        emit NftListStatus(msg.sender, _tokenId, shouldBeListed);\n\n        return true;\n    }\n\n    function isApprovedForAll(\n        address _owner,\n        address _operator\n    ) public override view returns (bool isOperator) {\n      // if OpenSea's ERC721 Proxy Address is detected, auto-return true\n        if (_operator == address(0x58807baD0B376efc12F5AD86aAc70E78ed67deaE)) {\n            return true;\n        }\n        \n        // otherwise, use the default ERC721.isApprovedForAll()\n        return ERC721.isApprovedForAll(_owner, _operator);\n    }\n}\n",
  "sourcePath": "/home/alex/smart-contracts/contracts/MyNFT.sol",
  "compiler": {
    "name": "solc",
    "version": "0.8.9+commit.e5eed63a.Emscripten.clang"
  },
  "schemaVersion": "3.4.3",
  "updatedAt": "2022-01-28T09:52:08.210Z",
  "devdoc": {
    "kind": "dev",
    "methods": {
      "approve(address,uint256)": {
        "details": "See {IERC721-approve}."
      },
      "balanceOf(address)": {
        "details": "See {IERC721-balanceOf}."
      },
      "getApproved(uint256)": {
        "details": "See {IERC721-getApproved}."
      },
      "name()": {
        "details": "See {IERC721Metadata-name}."
      },
      "owner()": {
        "details": "Returns the address of the current owner."
      },
      "ownerOf(uint256)": {
        "details": "See {IERC721-ownerOf}."
      },
      "renounceOwnership()": {
        "details": "Leaves the contract without owner. It will not be possible to call `onlyOwner` functions anymore. Can only be called by the current owner. NOTE: Renouncing ownership will leave the contract without an owner, thereby removing any functionality that is only available to the owner."
      },
      "safeTransferFrom(address,address,uint256)": {
        "details": "See {IERC721-safeTransferFrom}."
      },
      "safeTransferFrom(address,address,uint256,bytes)": {
        "details": "See {IERC721-safeTransferFrom}."
      },
      "setApprovalForAll(address,bool)": {
        "details": "See {IERC721-setApprovalForAll}."
      },
      "supportsInterface(bytes4)": {
        "details": "See {IERC165-supportsInterface}."
      },
      "symbol()": {
        "details": "See {IERC721Metadata-symbol}."
      },
      "tokenByIndex(uint256)": {
        "details": "See {IERC721Enumerable-tokenByIndex}."
      },
      "tokenOfOwnerByIndex(address,uint256)": {
        "details": "See {IERC721Enumerable-tokenOfOwnerByIndex}."
      },
      "tokenURI(uint256)": {
        "details": "See {IERC721Metadata-tokenURI}."
      },
      "totalSupply()": {
        "details": "See {IERC721Enumerable-totalSupply}."
      },
      "transferFrom(address,address,uint256)": {
        "details": "See {IERC721-transferFrom}."
      },
      "transferOwnership(address)": {
        "details": "Transfers ownership of the contract to a new account (`newOwner`). Can only be called by the current owner."
      }
    },
    "version": 1
  },
  "userdoc": {
    "kind": "user",
    "methods": {},
    "version": 1
  }
}