{
  "contractName": "MyNFT",
  "abi": [
    {
      "inputs": [
        {
          "internalType": "string",
          "name": "name_",
          "type": "string"
        },
        {
          "internalType": "string",
          "name": "symbol_",
          "type": "string"
        }
      ],
      "stateMutability": "nonpayable",
      "type": "constructor"
    },
    {
      "anonymous": false,
      "inputs": [
        {
          "indexed": true,
          "internalType": "address",
          "name": "owner",
          "type": "address"
        },
        {
          "indexed": true,
          "internalType": "address",
          "name": "approved",
          "type": "address"
        },
        {
          "indexed": true,
          "internalType": "uint256",
          "name": "tokenId",
          "type": "uint256"
        }
      ],
      "name": "Approval",
      "type": "event"
    },
    {
      "anonymous": false,
      "inputs": [
        {
          "indexed": true,
          "internalType": "address",
          "name": "owner",
          "type": "address"
        },
        {
          "indexed": true,
          "internalType": "address",
          "name": "operator",
          "type": "address"
        },
        {
          "indexed": false,
          "internalType": "bool",
          "name": "approved",
          "type": "bool"
        }
      ],
      "name": "ApprovalForAll",
      "type": "event"
    },
    {
      "anonymous": false,
      "inputs": [
        {
          "indexed": true,
          "internalType": "address",
          "name": "minter",
          "type": "address"
        },
        {
          "indexed": false,
          "internalType": "uint256",
          "name": "price",
          "type": "uint256"
        },
        {
          "indexed": false,
          "internalType": "uint256",
          "name": "nftID",
          "type": "uint256"
        },
        {
          "indexed": false,
          "internalType": "string",
          "name": "uri",
          "type": "string"
        }
      ],
      "name": "Minted",
      "type": "event"
    },
    {
      "anonymous": false,
      "inputs": [
        {
          "indexed": true,
          "internalType": "address",
          "name": "owner",
          "type": "address"
        },
        {
          "indexed": false,
          "internalType": "uint256",
          "name": "nftID",
          "type": "uint256"
        },
        {
          "indexed": false,
          "internalType": "bool",
          "name": "isListed",
          "type": "bool"
        }
      ],
      "name": "NftListStatus",
      "type": "event"
    },
    {
      "anonymous": false,
      "inputs": [
        {
          "indexed": true,
          "internalType": "address",
          "name": "previousOwner",
          "type": "address"
        },
        {
          "indexed": true,
          "internalType": "address",
          "name": "newOwner",
          "type": "address"
        }
      ],
      "name": "OwnershipTransferred",
      "type": "event"
    },
    {
      "anonymous": false,
      "inputs": [
        {
          "indexed": true,
          "internalType": "address",
          "name": "owner",
          "type": "address"
        },
        {
          "indexed": false,
          "internalType": "uint256",
          "name": "oldPrice",
          "type": "uint256"
        },
        {
          "indexed": false,
          "internalType": "uint256",
          "name": "newPrice",
          "type": "uint256"
        },
        {
          "indexed": false,
          "internalType": "uint256",
          "name": "nftID",
          "type": "uint256"
        }
      ],
      "name": "PriceUpdate",
      "type": "event"
    },
    {
      "anonymous": false,
      "inputs": [
        {
          "indexed": true,
          "internalType": "address",
          "name": "previousOwner",
          "type": "address"
        },
        {
          "indexed": true,
          "internalType": "address",
          "name": "newOwner",
          "type": "address"
        },
        {
          "indexed": false,
          "internalType": "uint256",
          "name": "price",
          "type": "uint256"
        },
        {
          "indexed": false,
          "internalType": "uint256",
          "name": "nftID",
          "type": "uint256"
        },
        {
          "indexed": false,
          "internalType": "string",
          "name": "uri",
          "type": "string"
        }
      ],
      "name": "Purchase",
      "type": "event"
    },
    {
      "anonymous": false,
      "inputs": [
        {
          "indexed": false,
          "internalType": "uint256",
          "name": "nftID",
          "type": "uint256"
        },
        {
          "indexed": false,
          "internalType": "uint256",
          "name": "sellerValue",
          "type": "uint256"
        },
        {
          "indexed": false,
          "internalType": "uint256",
          "name": "commissionValue",
          "type": "uint256"
        }
      ],
      "name": "Trade",
      "type": "event"
    },
    {
      "anonymous": false,
      "inputs": [
        {
          "indexed": true,
          "internalType": "address",
          "name": "from",
          "type": "address"
        },
        {
          "indexed": true,
          "internalType": "address",
          "name": "to",
          "type": "address"
        },
        {
          "indexed": true,
          "internalType": "uint256",
          "name": "tokenId",
          "type": "uint256"
        }
      ],
      "name": "Transfer",
      "type": "event"
    },
    {
      "inputs": [],
      "name": "_contractOwner",
      "outputs": [
        {
          "internalType": "address payable",
          "name": "",
          "type": "address"
        }
      ],
      "stateMutability": "view",
      "type": "function"
    },
    {
      "inputs": [
        {
          "internalType": "address",
          "name": "to",
          "type": "address"
        },
        {
          "internalType": "uint256",
          "name": "tokenId",
          "type": "uint256"
        }
      ],
      "name": "approve",
      "outputs": [],
      "stateMutability": "nonpayable",
      "type": "function"
    },
    {
      "inputs": [
        {
          "internalType": "address",
          "name": "owner",
          "type": "address"
        }
      ],
      "name": "balanceOf",
      "outputs": [
        {
          "internalType": "uint256",
          "name": "",
          "type": "uint256"
        }
      ],
      "stateMutability": "view",
      "type": "function"
    },
    {
      "inputs": [
        {
          "internalType": "uint256",
          "name": "tokenId",
          "type": "uint256"
        }
      ],
      "name": "getApproved",
      "outputs": [
        {
          "internalType": "address",
          "name": "",
          "type": "address"
        }
      ],
      "stateMutability": "view",
      "type": "function"
    },
    {
      "inputs": [
        {
          "internalType": "address",
          "name": "owner",
          "type": "address"
        },
        {
          "internalType": "address",
          "name": "operator",
          "type": "address"
        }
      ],
      "name": "isApprovedForAll",
      "outputs": [
        {
          "internalType": "bool",
          "name": "",
          "type": "bool"
        }
      ],
      "stateMutability": "view",
      "type": "function"
    },
    {
      "inputs": [
        {
          "internalType": "uint256",
          "name": "",
          "type": "uint256"
        }
      ],
      "name": "listedMap",
      "outputs": [
        {
          "internalType": "bool",
          "name": "",
          "type": "bool"
        }
      ],
      "stateMutability": "view",
      "type": "function"
    },
    {
      "inputs": [],
      "name": "name",
      "outputs": [
        {
          "internalType": "string",
          "name": "",
          "type": "string"
        }
      ],
      "stateMutability": "view",
      "type": "function"
    },
    {
      "inputs": [],
      "name": "owner",
      "outputs": [
        {
          "internalType": "address",
          "name": "",
          "type": "address"
        }
      ],
      "stateMutability": "view",
      "type": "function"
    },
    {
      "inputs": [
        {
          "internalType": "uint256",
          "name": "tokenId",
          "type": "uint256"
        }
      ],
      "name": "ownerOf",
      "outputs": [
        {
          "internalType": "address",
          "name": "",
          "type": "address"
        }
      ],
      "stateMutability": "view",
      "type": "function"
    },
    {
      "inputs": [
        {
          "internalType": "uint256",
          "name": "",
          "type": "uint256"
        }
      ],
      "name": "price",
      "outputs": [
        {
          "internalType": "uint256",
          "name": "",
          "type": "uint256"
        }
      ],
      "stateMutability": "view",
      "type": "function"
    },
    {
      "inputs": [],
      "name": "renounceOwnership",
      "outputs": [],
      "stateMutability": "nonpayable",
      "type": "function"
    },
    {
      "inputs": [
        {
          "internalType": "address",
          "name": "from",
          "type": "address"
        },
        {
          "internalType": "address",
          "name": "to",
          "type": "address"
        },
        {
          "internalType": "uint256",
          "name": "tokenId",
          "type": "uint256"
        }
      ],
      "name": "safeTransferFrom",
      "outputs": [],
      "stateMutability": "nonpayable",
      "type": "function"
    },
    {
      "inputs": [
        {
          "internalType": "address",
          "name": "from",
          "type": "address"
        },
        {
          "internalType": "address",
          "name": "to",
          "type": "address"
        },
        {
          "internalType": "uint256",
          "name": "tokenId",
          "type": "uint256"
        },
        {
          "internalType": "bytes",
          "name": "_data",
          "type": "bytes"
        }
      ],
      "name": "safeTransferFrom",
      "outputs": [],
      "stateMutability": "nonpayable",
      "type": "function"
    },
    {
      "inputs": [
        {
          "internalType": "address",
          "name": "operator",
          "type": "address"
        },
        {
          "internalType": "bool",
          "name": "approved",
          "type": "bool"
        }
      ],
      "name": "setApprovalForAll",
      "outputs": [],
      "stateMutability": "nonpayable",
      "type": "function"
    },
    {
      "inputs": [
        {
          "internalType": "bytes4",
          "name": "interfaceId",
          "type": "bytes4"
        }
      ],
      "name": "supportsInterface",
      "outputs": [
        {
          "internalType": "bool",
          "name": "",
          "type": "bool"
        }
      ],
      "stateMutability": "view",
      "type": "function"
    },
    {
      "inputs": [],
      "name": "symbol",
      "outputs": [
        {
          "internalType": "string",
          "name": "",
          "type": "string"
        }
      ],
      "stateMutability": "view",
      "type": "function"
    },
    {
      "inputs": [
        {
          "internalType": "uint256",
          "name": "index",
          "type": "uint256"
        }
      ],
      "name": "tokenByIndex",
      "outputs": [
        {
          "internalType": "uint256",
          "name": "",
          "type": "uint256"
        }
      ],
      "stateMutability": "view",
      "type": "function"
    },
    {
      "inputs": [
        {
          "internalType": "address",
          "name": "owner",
          "type": "address"
        },
        {
          "internalType": "uint256",
          "name": "index",
          "type": "uint256"
        }
      ],
      "name": "tokenOfOwnerByIndex",
      "outputs": [
        {
          "internalType": "uint256",
          "name": "",
          "type": "uint256"
        }
      ],
      "stateMutability": "view",
      "type": "function"
    },
    {
      "inputs": [],
      "name": "totalSupply",
      "outputs": [
        {
          "internalType": "uint256",
          "name": "",
          "type": "uint256"
        }
      ],
      "stateMutability": "view",
      "type": "function"
    },
    {
      "inputs": [
        {
          "internalType": "address",
          "name": "from",
          "type": "address"
        },
        {
          "internalType": "address",
          "name": "to",
          "type": "address"
        },
        {
          "internalType": "uint256",
          "name": "tokenId",
          "type": "uint256"
        }
      ],
      "name": "transferFrom",
      "outputs": [],
      "stateMutability": "nonpayable",
      "type": "function"
    },
    {
      "inputs": [
        {
          "internalType": "address",
          "name": "newOwner",
          "type": "address"
        }
      ],
      "name": "transferOwnership",
      "outputs": [],
      "stateMutability": "nonpayable",
      "type": "function"
    },
    {
      "inputs": [
        {
          "internalType": "uint256",
          "name": "tokenId",
          "type": "uint256"
        }
      ],
      "name": "tokenURI",
      "outputs": [
        {
          "internalType": "string",
          "name": "",
          "type": "string"
        }
      ],
      "stateMutability": "view",
      "type": "function"
    },
    {
      "inputs": [],
      "name": "decimals",
      "outputs": [
        {
          "internalType": "uint8",
          "name": "",
          "type": "uint8"
        }
      ],
      "stateMutability": "view",
      "type": "function"
    },
    {
      "inputs": [],
      "name": "contractOwner",
      "outputs": [
        {
          "internalType": "address",
          "name": "",
          "type": "address"
        }
      ],
      "stateMutability": "view",
      "type": "function"
    },
    {
      "inputs": [
        {
          "internalType": "uint256",
          "name": "_tokenId",
          "type": "uint256"
        },
        {
          "internalType": "string",
          "name": "_tokenURI",
          "type": "string"
        },
        {
          "internalType": "address",
          "name": "_toAddress",
          "type": "address"
        },
        {
          "internalType": "uint256",
          "name": "_price",
          "type": "uint256"
        }
      ],
      "name": "mint",
      "outputs": [
        {
          "internalType": "uint256",
          "name": "",
          "type": "uint256"
        }
      ],
      "stateMutability": "nonpayable",
      "type": "function"
    },
    {
      "inputs": [
        {
          "internalType": "uint256",
          "name": "_id",
          "type": "uint256"
        }
      ],
      "name": "buy",
      "outputs": [],
      "stateMutability": "payable",
      "type": "function"
    },
    {
      "inputs": [
        {
          "internalType": "uint256",
          "name": "_tokenId",
          "type": "uint256"
        },
        {
          "internalType": "uint256",
          "name": "_price",
          "type": "uint256"
        }
      ],
      "name": "updatePrice",
      "outputs": [
        {
          "internalType": "bool",
          "name": "",
          "type": "bool"
        }
      ],
      "stateMutability": "nonpayable",
      "type": "function"
    },
    {
      "inputs": [
        {
          "internalType": "uint256",
          "name": "_tokenId",
          "type": "uint256"
        },
        {
          "internalType": "bool",
          "name": "shouldBeListed",
          "type": "bool"
        }
      ],
      "name": "updateListingStatus",
      "outputs": [
        {
          "internalType": "bool",
          "name": "",
          "type": "bool"
        }
      ],
      "stateMutability": "nonpayable",
      "type": "function"
    }
  ],
  "bytecode": "0x60806040523480156200001157600080fd5b5060405162004adf38038062004adf8339818101604052810190620000379190620003f1565b8181816000908051906020019062000051929190620001a4565b5080600190805190602001906200006a929190620001a4565b5050506200008d62000081620000d660201b60201c565b620000de60201b60201c565b33600b60006101000a81548173ffffffffffffffffffffffffffffffffffffffff021916908373ffffffffffffffffffffffffffffffffffffffff1602179055505050620004db565b600033905090565b6000600a60009054906101000a900473ffffffffffffffffffffffffffffffffffffffff16905081600a60006101000a81548173ffffffffffffffffffffffffffffffffffffffff021916908373ffffffffffffffffffffffffffffffffffffffff1602179055508173ffffffffffffffffffffffffffffffffffffffff168173ffffffffffffffffffffffffffffffffffffffff167f8be0079c531659141344cd1fd0a4f28419497f9722a3daafe3b4186f6b6457e060405160405180910390a35050565b828054620001b290620004a5565b90600052602060002090601f016020900481019282620001d6576000855562000222565b82601f10620001f157805160ff191683800117855562000222565b8280016001018555821562000222579182015b828111156200022157825182559160200191906001019062000204565b5b50905062000231919062000235565b5090565b5b808211156200025057600081600090555060010162000236565b5090565b6000604051905090565b600080fd5b600080fd5b600080fd5b600080fd5b6000601f19601f8301169050919050565b7f4e487b7100000000000000000000000000000000000000000000000000000000600052604160045260246000fd5b620002bd8262000272565b810181811067ffffffffffffffff82111715620002df57620002de62000283565b5b80604052505050565b6000620002f462000254565b9050620003028282620002b2565b919050565b600067ffffffffffffffff82111562000325576200032462000283565b5b620003308262000272565b9050602081019050919050565b60005b838110156200035d57808201518184015260208101905062000340565b838111156200036d576000848401525b50505050565b60006200038a620003848462000307565b620002e8565b905082815260208101848484011115620003a957620003a86200026d565b5b620003b68482856200033d565b509392505050565b600082601f830112620003d657620003d562000268565b5b8151620003e884826020860162000373565b91505092915050565b600080604083850312156200040b576200040a6200025e565b5b600083015167ffffffffffffffff8111156200042c576200042b62000263565b5b6200043a85828601620003be565b925050602083015167ffffffffffffffff8111156200045e576200045d62000263565b5b6200046c85828601620003be565b9150509250929050565b7f4e487b7100000000000000000000000000000000000000000000000000000000600052602260045260246000fd5b60006002820490506001821680620004be57607f821691505b60208210811415620004d557620004d462000476565b5b50919050565b6145f480620004eb6000396000f3fe6080604052600436106101b75760003560e01c8063715018a6116100ec578063b88d4fde1161008a578063ce606ee011610064578063ce606ee01461067e578063d96a094a146106a9578063e985e9c5146106c5578063f2fde38b14610702576101b7565b8063b88d4fde146105db578063bc8ba28f14610604578063c87b56dd14610641576101b7565b80638da5cb5b116100c65780638da5cb5b1461051f57806395d89b411461054a57806398214bcb14610575578063a22cb465146105b2576101b7565b8063715018a61461048e5780637b71b671146104a557806382367b2d146104e2576101b7565b80632bb3b1141161015957806342842e0e1161013357806342842e0e146103ae5780634f6ccce7146103d75780636352211e1461041457806370a0823114610451576101b7565b80632bb3b1141461031b5780632f745c5914610346578063313ce56714610383576101b7565b8063095ea7b311610195578063095ea7b31461026157806318160ddd1461028a57806323b872dd146102b557806326a49e37146102de576101b7565b806301ffc9a7146101bc57806306fdde03146101f9578063081812fc14610224575b600080fd5b3480156101c857600080fd5b506101e360048036038101906101de9190612d31565b61072b565b6040516101f09190612d79565b60405180910390f35b34801561020557600080fd5b5061020e6107a5565b60405161021b9190612e2d565b60405180910390f35b34801561023057600080fd5b5061024b60048036038101906102469190612e85565b610837565b6040516102589190612ef3565b60405180910390f35b34801561026d57600080fd5b5061028860048036038101906102839190612f3a565b6108bc565b005b34801561029657600080fd5b5061029f6109d4565b6040516102ac9190612f89565b60405180910390f35b3480156102c157600080fd5b506102dc60048036038101906102d79190612fa4565b6109e1565b005b3480156102ea57600080fd5b5061030560048036038101906103009190612e85565b610a41565b6040516103129190612f89565b60405180910390f35b34801561032757600080fd5b50610330610a59565b60405161033d9190613018565b60405180910390f35b34801561035257600080fd5b5061036d60048036038101906103689190612f3a565b610a7f565b60405161037a9190612f89565b60405180910390f35b34801561038f57600080fd5b50610398610b24565b6040516103a5919061304f565b60405180910390f35b3480156103ba57600080fd5b506103d560048036038101906103d09190612fa4565b610b29565b005b3480156103e357600080fd5b506103fe60048036038101906103f99190612e85565b610b49565b60405161040b9190612f89565b60405180910390f35b34801561042057600080fd5b5061043b60048036038101906104369190612e85565b610bba565b6040516104489190612ef3565b60405180910390f35b34801561045d57600080fd5b506104786004803603810190610473919061306a565b610c6c565b6040516104859190612f89565b60405180910390f35b34801561049a57600080fd5b506104a3610d24565b005b3480156104b157600080fd5b506104cc60048036038101906104c791906131cc565b610dac565b6040516104d99190612f89565b60405180910390f35b3480156104ee57600080fd5b506105096004803603810190610504919061324f565b610e63565b6040516105169190612d79565b60405180910390f35b34801561052b57600080fd5b50610534610f67565b6040516105419190612ef3565b60405180910390f35b34801561055657600080fd5b5061055f610f91565b60405161056c9190612e2d565b60405180910390f35b34801561058157600080fd5b5061059c600480360381019061059791906132bb565b611023565b6040516105a99190612d79565b60405180910390f35b3480156105be57600080fd5b506105d960048036038101906105d491906132fb565b611120565b005b3480156105e757600080fd5b5061060260048036038101906105fd91906133dc565b6112a1565b005b34801561061057600080fd5b5061062b60048036038101906106269190612e85565b611303565b6040516106389190612d79565b60405180910390f35b34801561064d57600080fd5b5061066860048036038101906106639190612e85565b611323565b6040516106759190612e2d565b60405180910390f35b34801561068a57600080fd5b50610693611475565b6040516106a09190612ef3565b60405180910390f35b6106c360048036038101906106be9190612e85565b61149f565b005b3480156106d157600080fd5b506106ec60048036038101906106e7919061345f565b61154c565b6040516106f99190612d79565b60405180910390f35b34801561070e57600080fd5b506107296004803603810190610724919061306a565b6115e0565b005b60007f780e9d63000000000000000000000000000000000000000000000000000000007bffffffffffffffffffffffffffffffffffffffffffffffffffffffff1916827bffffffffffffffffffffffffffffffffffffffffffffffffffffffff1916148061079e575061079d826116d8565b5b9050919050565b6060600080546107b4906134ce565b80601f01602080910402602001604051908101604052809291908181526020018280546107e0906134ce565b801561082d5780601f106108025761010080835404028352916020019161082d565b820191906000526020600020905b81548152906001019060200180831161081057829003601f168201915b5050505050905090565b6000610842826117ba565b610881576040517f08c379a000000000000000000000000000000000000000000000000000000000815260040161087890613572565b60405180910390fd5b6004600083815260200190815260200160002060009054906101000a900473ffffffffffffffffffffffffffffffffffffffff169050919050565b60006108c782610bba565b90508073ffffffffffffffffffffffffffffffffffffffff168373ffffffffffffffffffffffffffffffffffffffff161415610938576040517f08c379a000000000000000000000000000000000000000000000000000000000815260040161092f90613604565b60405180910390fd5b8073ffffffffffffffffffffffffffffffffffffffff16610957611826565b73ffffffffffffffffffffffffffffffffffffffff161480610986575061098581610980611826565b61154c565b5b6109c5576040517f08c379a00000000000000000000000000000000000000000000000000000000081526004016109bc90613696565b60405180910390fd5b6109cf838361182e565b505050565b6000600880549050905090565b6109f26109ec611826565b826118e7565b610a31576040517f08c379a0000000000000000000000000000000000000000000000000000000008152600401610a2890613728565b60405180910390fd5b610a3c8383836119c5565b505050565b600c6020528060005260406000206000915090505481565b600b60009054906101000a900473ffffffffffffffffffffffffffffffffffffffff1681565b6000610a8a83610c6c565b8210610acb576040517f08c379a0000000000000000000000000000000000000000000000000000000008152600401610ac2906137ba565b60405180910390fd5b600660008473ffffffffffffffffffffffffffffffffffffffff1673ffffffffffffffffffffffffffffffffffffffff168152602001908152602001600020600083815260200190815260200160002054905092915050565b600090565b610b44838383604051806020016040528060008152506112a1565b505050565b6000610b536109d4565b8210610b94576040517f08c379a0000000000000000000000000000000000000000000000000000000008152600401610b8b9061384c565b60405180910390fd5b60088281548110610ba857610ba761386c565b5b90600052602060002001549050919050565b6000806002600084815260200190815260200160002060009054906101000a900473ffffffffffffffffffffffffffffffffffffffff169050600073ffffffffffffffffffffffffffffffffffffffff168173ffffffffffffffffffffffffffffffffffffffff161415610c63576040517f08c379a0000000000000000000000000000000000000000000000000000000008152600401610c5a9061390d565b60405180910390fd5b80915050919050565b60008073ffffffffffffffffffffffffffffffffffffffff168273ffffffffffffffffffffffffffffffffffffffff161415610cdd576040517f08c379a0000000000000000000000000000000000000000000000000000000008152600401610cd49061399f565b60405180910390fd5b600360008373ffffffffffffffffffffffffffffffffffffffff1673ffffffffffffffffffffffffffffffffffffffff168152602001908152602001600020549050919050565b610d2c611826565b73ffffffffffffffffffffffffffffffffffffffff16610d4a610f67565b73ffffffffffffffffffffffffffffffffffffffff1614610da0576040517f08c379a0000000000000000000000000000000000000000000000000000000008152600401610d9790613a0b565b60405180910390fd5b610daa6000611c21565b565b600081600c6000878152602001908152602001600020819055506001600d600087815260200190815260200160002060006101000a81548160ff021916908315150217905550610dfc8386611ce7565b610e068585611d05565b8273ffffffffffffffffffffffffffffffffffffffff167ff2cb5e52049d127ad1c335f1cc25f2fdbc911bec1beb2611f4c1e8b1c274d4b4838787604051610e5093929190613a2b565b60405180910390a2849050949350505050565b600080600c6000858152602001908152602001600020549050610e8584610bba565b73ffffffffffffffffffffffffffffffffffffffff163373ffffffffffffffffffffffffffffffffffffffff1614610ef2576040517f08c379a0000000000000000000000000000000000000000000000000000000008152600401610ee990613ab5565b60405180910390fd5b82600c6000868152602001908152602001600020819055503373ffffffffffffffffffffffffffffffffffffffff167f8647dab5101cbe18afb171756e9753802f9d66725bf2346b079b8b1a275e0116828587604051610f5493929190613ad5565b60405180910390a2600191505092915050565b6000600a60009054906101000a900473ffffffffffffffffffffffffffffffffffffffff16905090565b606060018054610fa0906134ce565b80601f0160208091040260200160405190810160405280929190818152602001828054610fcc906134ce565b80156110195780601f10610fee57610100808354040283529160200191611019565b820191906000526020600020905b815481529060010190602001808311610ffc57829003601f168201915b5050505050905090565b600061102e83610bba565b73ffffffffffffffffffffffffffffffffffffffff163373ffffffffffffffffffffffffffffffffffffffff161461109b576040517f08c379a000000000000000000000000000000000000000000000000000000000815260040161109290613ab5565b60405180910390fd5b81600d600085815260200190815260200160002060006101000a81548160ff0219169083151502179055503373ffffffffffffffffffffffffffffffffffffffff167f3fd63d9ca8dc693a1b9911e664951294721009a4f6239c862d6719a160a1edfc848460405161110e929190613b0c565b60405180910390a26001905092915050565b611128611826565b73ffffffffffffffffffffffffffffffffffffffff168273ffffffffffffffffffffffffffffffffffffffff161415611196576040517f08c379a000000000000000000000000000000000000000000000000000000000815260040161118d90613b81565b60405180910390fd5b80600560006111a3611826565b73ffffffffffffffffffffffffffffffffffffffff1673ffffffffffffffffffffffffffffffffffffffff16815260200190815260200160002060008473ffffffffffffffffffffffffffffffffffffffff1673ffffffffffffffffffffffffffffffffffffffff16815260200190815260200160002060006101000a81548160ff0219169083151502179055508173ffffffffffffffffffffffffffffffffffffffff16611250611826565b73ffffffffffffffffffffffffffffffffffffffff167f17307eab39ab6107e8899845ad3d59bd9653f200f220920489ca2b5937696c31836040516112959190612d79565b60405180910390a35050565b6112b26112ac611826565b836118e7565b6112f1576040517f08c379a00000000000000000000000000000000000000000000000000000000081526004016112e890613728565b60405180910390fd5b6112fd84848484611d79565b50505050565b600d6020528060005260406000206000915054906101000a900460ff1681565b606061132e826117ba565b61136d576040517f08c379a000000000000000000000000000000000000000000000000000000000815260040161136490613c13565b60405180910390fd5b6000600e6000848152602001908152602001600020805461138d906134ce565b80601f01602080910402602001604051908101604052809291908181526020018280546113b9906134ce565b80156114065780601f106113db57610100808354040283529160200191611406565b820191906000526020600020905b8154815290600101906020018083116113e957829003601f168201915b505050505090506000611417611dd5565b905060008151141561142d578192505050611470565b60008251111561146257808260405160200161144a929190613c6f565b60405160208183030381529060405292505050611470565b61146b84611dec565b925050505b919050565b6000600b60009054906101000a900473ffffffffffffffffffffffffffffffffffffffff16905090565b6114a881611e93565b60006114b382610bba565b905060003390506114c383612011565b8073ffffffffffffffffffffffffffffffffffffffff168273ffffffffffffffffffffffffffffffffffffffff167fef258f47a33a1cba99d81ea828f234ff5d6cb31034c0f79ecb5198f8c6d118f6600c6000878152602001908152602001600020548661153088611323565b60405161153f93929190613a2b565b60405180910390a3505050565b6000600560008473ffffffffffffffffffffffffffffffffffffffff1673ffffffffffffffffffffffffffffffffffffffff16815260200190815260200160002060008373ffffffffffffffffffffffffffffffffffffffff1673ffffffffffffffffffffffffffffffffffffffff16815260200190815260200160002060009054906101000a900460ff16905092915050565b6115e8611826565b73ffffffffffffffffffffffffffffffffffffffff16611606610f67565b73ffffffffffffffffffffffffffffffffffffffff161461165c576040517f08c379a000000000000000000000000000000000000000000000000000000000815260040161165390613a0b565b60405180910390fd5b600073ffffffffffffffffffffffffffffffffffffffff168173ffffffffffffffffffffffffffffffffffffffff1614156116cc576040517f08c379a00000000000000000000000000000000000000000000000000000000081526004016116c390613d05565b60405180910390fd5b6116d581611c21565b50565b60007f80ac58cd000000000000000000000000000000000000000000000000000000007bffffffffffffffffffffffffffffffffffffffffffffffffffffffff1916827bffffffffffffffffffffffffffffffffffffffffffffffffffffffff191614806117a357507f5b5e139f000000000000000000000000000000000000000000000000000000007bffffffffffffffffffffffffffffffffffffffffffffffffffffffff1916827bffffffffffffffffffffffffffffffffffffffffffffffffffffffff1916145b806117b357506117b282612239565b5b9050919050565b60008073ffffffffffffffffffffffffffffffffffffffff166002600084815260200190815260200160002060009054906101000a900473ffffffffffffffffffffffffffffffffffffffff1673ffffffffffffffffffffffffffffffffffffffff1614159050919050565b600033905090565b816004600083815260200190815260200160002060006101000a81548173ffffffffffffffffffffffffffffffffffffffff021916908373ffffffffffffffffffffffffffffffffffffffff160217905550808273ffffffffffffffffffffffffffffffffffffffff166118a183610bba565b73ffffffffffffffffffffffffffffffffffffffff167f8c5be1e5ebec7d5bd14f71427d1e84f3dd0314c0f7b2291e5b200ac8c7c3b92560405160405180910390a45050565b60006118f2826117ba565b611931576040517f08c379a000000000000000000000000000000000000000000000000000000000815260040161192890613d97565b60405180910390fd5b600061193c83610bba565b90508073ffffffffffffffffffffffffffffffffffffffff168473ffffffffffffffffffffffffffffffffffffffff1614806119ab57508373ffffffffffffffffffffffffffffffffffffffff1661199384610837565b73ffffffffffffffffffffffffffffffffffffffff16145b806119bc57506119bb818561154c565b5b91505092915050565b8273ffffffffffffffffffffffffffffffffffffffff166119e582610bba565b73ffffffffffffffffffffffffffffffffffffffff1614611a3b576040517f08c379a0000000000000000000000000000000000000000000000000000000008152600401611a3290613e29565b60405180910390fd5b600073ffffffffffffffffffffffffffffffffffffffff168273ffffffffffffffffffffffffffffffffffffffff161415611aab576040517f08c379a0000000000000000000000000000000000000000000000000000000008152600401611aa290613ebb565b60405180910390fd5b611ab68383836122a3565b611ac160008261182e565b6001600360008573ffffffffffffffffffffffffffffffffffffffff1673ffffffffffffffffffffffffffffffffffffffff1681526020019081526020016000206000828254611b119190613f0a565b925050819055506001600360008473ffffffffffffffffffffffffffffffffffffffff1673ffffffffffffffffffffffffffffffffffffffff1681526020019081526020016000206000828254611b689190613f3e565b92505081905550816002600083815260200190815260200160002060006101000a81548173ffffffffffffffffffffffffffffffffffffffff021916908373ffffffffffffffffffffffffffffffffffffffff160217905550808273ffffffffffffffffffffffffffffffffffffffff168473ffffffffffffffffffffffffffffffffffffffff167fddf252ad1be2c89b69c2b068fc378daa952ba7f163c4a11628f55a4df523b3ef60405160405180910390a4505050565b6000600a60009054906101000a900473ffffffffffffffffffffffffffffffffffffffff16905081600a60006101000a81548173ffffffffffffffffffffffffffffffffffffffff021916908373ffffffffffffffffffffffffffffffffffffffff1602179055508173ffffffffffffffffffffffffffffffffffffffff168173ffffffffffffffffffffffffffffffffffffffff167f8be0079c531659141344cd1fd0a4f28419497f9722a3daafe3b4186f6b6457e060405160405180910390a35050565b611d018282604051806020016040528060008152506123b7565b5050565b611d0e826117ba565b611d4d576040517f08c379a0000000000000000000000000000000000000000000000000000000008152600401611d4490614006565b60405180910390fd5b80600e60008481526020019081526020016000209080519060200190611d74929190612c22565b505050565b611d848484846119c5565b611d9084848484612412565b611dcf576040517f08c379a0000000000000000000000000000000000000000000000000000000008152600401611dc690614098565b60405180910390fd5b50505050565b606060405180602001604052806000815250905090565b6060611df7826117ba565b611e36576040517f08c379a0000000000000000000000000000000000000000000000000000000008152600401611e2d9061412a565b60405180910390fd5b6000611e40611dd5565b90506000815111611e605760405180602001604052806000815250611e8b565b80611e6a846125a9565b604051602001611e7b929190613c6f565b6040516020818303038152906040525b915050919050565b6000600d600083815260200190815260200160002060009054906101000a900460ff169050611ec1826117ba565b611f00576040517f08c379a0000000000000000000000000000000000000000000000000000000008152600401611ef790614196565b60405180910390fd5b80611f40576040517f08c379a0000000000000000000000000000000000000000000000000000000008152600401611f3790614202565b60405180910390fd5b600c600083815260200190815260200160002054341015611f96576040517f08c379a0000000000000000000000000000000000000000000000000000000008152600401611f8d9061426e565b60405180910390fd5b611f9f82610bba565b73ffffffffffffffffffffffffffffffffffffffff163373ffffffffffffffffffffffffffffffffffffffff16141561200d576040517f08c379a0000000000000000000000000000000000000000000000000000000008152600401612004906142da565b60405180910390fd5b5050565b6000339050600061202183610bba565b905061203e81838560405180602001604052806000815250611d79565b60006120676064600c60008781526020019081526020016000205461270a90919063ffffffff16565b9050600061209182600c60008881526020019081526020016000205461272090919063ffffffff16565b90508273ffffffffffffffffffffffffffffffffffffffff166108fc829081150290604051600060405180830381858888f193505050501580156120d9573d6000803e3d6000fd5b50600b60009054906101000a900473ffffffffffffffffffffffffffffffffffffffff1673ffffffffffffffffffffffffffffffffffffffff166108fc839081150290604051600060405180830381858888f19350505050158015612142573d6000803e3d6000fd5b50600c6000868152602001908152602001600020543411156121cb578373ffffffffffffffffffffffffffffffffffffffff166108fc61219e600c6000898152602001908152602001600020543461272090919063ffffffff16565b9081150290604051600060405180830381858888f193505050501580156121c9573d6000803e3d6000fd5b505b6000600d600087815260200190815260200160002060006101000a81548160ff0219169083151502179055507f1944290154176f4c0b5d8339910ce66de9f4a57a21c3737bb4b212644c73577685828460405161222a93929190613ad5565b60405180910390a15050505050565b60007f01ffc9a7000000000000000000000000000000000000000000000000000000007bffffffffffffffffffffffffffffffffffffffffffffffffffffffff1916827bffffffffffffffffffffffffffffffffffffffffffffffffffffffff1916149050919050565b6122ae838383612736565b600073ffffffffffffffffffffffffffffffffffffffff168373ffffffffffffffffffffffffffffffffffffffff1614156122f1576122ec8161273b565b612330565b8173ffffffffffffffffffffffffffffffffffffffff168373ffffffffffffffffffffffffffffffffffffffff161461232f5761232e8382612784565b5b5b600073ffffffffffffffffffffffffffffffffffffffff168273ffffffffffffffffffffffffffffffffffffffff1614156123735761236e816128f1565b6123b2565b8273ffffffffffffffffffffffffffffffffffffffff168273ffffffffffffffffffffffffffffffffffffffff16146123b1576123b082826129c2565b5b5b505050565b6123c18383612a41565b6123ce6000848484612412565b61240d576040517f08c379a000000000000000000000000000000000000000000000000000000000815260040161240490614098565b60405180910390fd5b505050565b60006124338473ffffffffffffffffffffffffffffffffffffffff16612c0f565b1561259c578373ffffffffffffffffffffffffffffffffffffffff1663150b7a0261245c611826565b8786866040518563ffffffff1660e01b815260040161247e949392919061434f565b602060405180830381600087803b15801561249857600080fd5b505af19250505080156124c957506040513d601f19601f820116820180604052508101906124c691906143b0565b60015b61254c573d80600081146124f9576040519150601f19603f3d011682016040523d82523d6000602084013e6124fe565b606091505b50600081511415612544576040517f08c379a000000000000000000000000000000000000000000000000000000000815260040161253b90614098565b60405180910390fd5b805181602001fd5b63150b7a0260e01b7bffffffffffffffffffffffffffffffffffffffffffffffffffffffff1916817bffffffffffffffffffffffffffffffffffffffffffffffffffffffff1916149150506125a1565b600190505b949350505050565b606060008214156125f1576040518060400160405280600181526020017f30000000000000000000000000000000000000000000000000000000000000008152509050612705565b600082905060005b6000821461262357808061260c906143dd565b915050600a8261261c9190614455565b91506125f9565b60008167ffffffffffffffff81111561263f5761263e6130a1565b5b6040519080825280601f01601f1916602001820160405280156126715781602001600182028036833780820191505090505b5090505b600085146126fe5760018261268a9190613f0a565b9150600a856126999190614486565b60306126a59190613f3e565b60f81b8183815181106126bb576126ba61386c565b5b60200101907effffffffffffffffffffffffffffffffffffffffffffffffffffffffffffff1916908160001a905350600a856126f79190614455565b9450612675565b8093505050505b919050565b600081836127189190614455565b905092915050565b6000818361272e9190613f0a565b905092915050565b505050565b6008805490506009600083815260200190815260200160002081905550600881908060018154018082558091505060019003906000526020600020016000909190919091505550565b6000600161279184610c6c565b61279b9190613f0a565b9050600060076000848152602001908152602001600020549050818114612880576000600660008673ffffffffffffffffffffffffffffffffffffffff1673ffffffffffffffffffffffffffffffffffffffff168152602001908152602001600020600084815260200190815260200160002054905080600660008773ffffffffffffffffffffffffffffffffffffffff1673ffffffffffffffffffffffffffffffffffffffff168152602001908152602001600020600084815260200190815260200160002081905550816007600083815260200190815260200160002081905550505b6007600084815260200190815260200160002060009055600660008573ffffffffffffffffffffffffffffffffffffffff1673ffffffffffffffffffffffffffffffffffffffff16815260200190815260200160002060008381526020019081526020016000206000905550505050565b600060016008805490506129059190613f0a565b90506000600960008481526020019081526020016000205490506000600883815481106129355761293461386c565b5b9060005260206000200154905080600883815481106129575761295661386c565b5b9060005260206000200181905550816009600083815260200190815260200160002081905550600960008581526020019081526020016000206000905560088054806129a6576129a56144b7565b5b6001900381819060005260206000200160009055905550505050565b60006129cd83610c6c565b905081600660008573ffffffffffffffffffffffffffffffffffffffff1673ffffffffffffffffffffffffffffffffffffffff168152602001908152602001600020600083815260200190815260200160002081905550806007600084815260200190815260200160002081905550505050565b600073ffffffffffffffffffffffffffffffffffffffff168273ffffffffffffffffffffffffffffffffffffffff161415612ab1576040517f08c379a0000000000000000000000000000000000000000000000000000000008152600401612aa890614532565b60405180910390fd5b612aba816117ba565b15612afa576040517f08c379a0000000000000000000000000000000000000000000000000000000008152600401612af19061459e565b60405180910390fd5b612b06600083836122a3565b6001600360008473ffffffffffffffffffffffffffffffffffffffff1673ffffffffffffffffffffffffffffffffffffffff1681526020019081526020016000206000828254612b569190613f3e565b92505081905550816002600083815260200190815260200160002060006101000a81548173ffffffffffffffffffffffffffffffffffffffff021916908373ffffffffffffffffffffffffffffffffffffffff160217905550808273ffffffffffffffffffffffffffffffffffffffff16600073ffffffffffffffffffffffffffffffffffffffff167fddf252ad1be2c89b69c2b068fc378daa952ba7f163c4a11628f55a4df523b3ef60405160405180910390a45050565b600080823b905060008111915050919050565b828054612c2e906134ce565b90600052602060002090601f016020900481019282612c505760008555612c97565b82601f10612c6957805160ff1916838001178555612c97565b82800160010185558215612c97579182015b82811115612c96578251825591602001919060010190612c7b565b5b509050612ca49190612ca8565b5090565b5b80821115612cc1576000816000905550600101612ca9565b5090565b6000604051905090565b600080fd5b600080fd5b60007fffffffff0000000000000000000000000000000000000000000000000000000082169050919050565b612d0e81612cd9565b8114612d1957600080fd5b50565b600081359050612d2b81612d05565b92915050565b600060208284031215612d4757612d46612ccf565b5b6000612d5584828501612d1c565b91505092915050565b60008115159050919050565b612d7381612d5e565b82525050565b6000602082019050612d8e6000830184612d6a565b92915050565b600081519050919050565b600082825260208201905092915050565b60005b83811015612dce578082015181840152602081019050612db3565b83811115612ddd576000848401525b50505050565b6000601f19601f8301169050919050565b6000612dff82612d94565b612e098185612d9f565b9350612e19818560208601612db0565b612e2281612de3565b840191505092915050565b60006020820190508181036000830152612e478184612df4565b905092915050565b6000819050919050565b612e6281612e4f565b8114612e6d57600080fd5b50565b600081359050612e7f81612e59565b92915050565b600060208284031215612e9b57612e9a612ccf565b5b6000612ea984828501612e70565b91505092915050565b600073ffffffffffffffffffffffffffffffffffffffff82169050919050565b6000612edd82612eb2565b9050919050565b612eed81612ed2565b82525050565b6000602082019050612f086000830184612ee4565b92915050565b612f1781612ed2565b8114612f2257600080fd5b50565b600081359050612f3481612f0e565b92915050565b60008060408385031215612f5157612f50612ccf565b5b6000612f5f85828601612f25565b9250506020612f7085828601612e70565b9150509250929050565b612f8381612e4f565b82525050565b6000602082019050612f9e6000830184612f7a565b92915050565b600080600060608486031215612fbd57612fbc612ccf565b5b6000612fcb86828701612f25565b9350506020612fdc86828701612f25565b9250506040612fed86828701612e70565b9150509250925092565b600061300282612eb2565b9050919050565b61301281612ff7565b82525050565b600060208201905061302d6000830184613009565b92915050565b600060ff82169050919050565b61304981613033565b82525050565b60006020820190506130646000830184613040565b92915050565b6000602082840312156130805761307f612ccf565b5b600061308e84828501612f25565b91505092915050565b600080fd5b600080fd5b7f4e487b7100000000000000000000000000000000000000000000000000000000600052604160045260246000fd5b6130d982612de3565b810181811067ffffffffffffffff821117156130f8576130f76130a1565b5b80604052505050565b600061310b612cc5565b905061311782826130d0565b919050565b600067ffffffffffffffff821115613137576131366130a1565b5b61314082612de3565b9050602081019050919050565b82818337600083830152505050565b600061316f61316a8461311c565b613101565b90508281526020810184848401111561318b5761318a61309c565b5b61319684828561314d565b509392505050565b600082601f8301126131b3576131b2613097565b5b81356131c384826020860161315c565b91505092915050565b600080600080608085870312156131e6576131e5612ccf565b5b60006131f487828801612e70565b945050602085013567ffffffffffffffff81111561321557613214612cd4565b5b6132218782880161319e565b935050604061323287828801612f25565b925050606061324387828801612e70565b91505092959194509250565b6000806040838503121561326657613265612ccf565b5b600061327485828601612e70565b925050602061328585828601612e70565b9150509250929050565b61329881612d5e565b81146132a357600080fd5b50565b6000813590506132b58161328f565b92915050565b600080604083850312156132d2576132d1612ccf565b5b60006132e085828601612e70565b92505060206132f1858286016132a6565b9150509250929050565b6000806040838503121561331257613311612ccf565b5b600061332085828601612f25565b9250506020613331858286016132a6565b9150509250929050565b600067ffffffffffffffff821115613356576133556130a1565b5b61335f82612de3565b9050602081019050919050565b600061337f61337a8461333b565b613101565b90508281526020810184848401111561339b5761339a61309c565b5b6133a684828561314d565b509392505050565b600082601f8301126133c3576133c2613097565b5b81356133d384826020860161336c565b91505092915050565b600080600080608085870312156133f6576133f5612ccf565b5b600061340487828801612f25565b945050602061341587828801612f25565b935050604061342687828801612e70565b925050606085013567ffffffffffffffff81111561344757613446612cd4565b5b613453878288016133ae565b91505092959194509250565b6000806040838503121561347657613475612ccf565b5b600061348485828601612f25565b925050602061349585828601612f25565b9150509250929050565b7f4e487b7100000000000000000000000000000000000000000000000000000000600052602260045260246000fd5b600060028204905060018216806134e657607f821691505b602082108114156134fa576134f961349f565b5b50919050565b7f4552433732313a20617070726f76656420717565727920666f72206e6f6e657860008201527f697374656e7420746f6b656e0000000000000000000000000000000000000000602082015250565b600061355c602c83612d9f565b915061356782613500565b604082019050919050565b6000602082019050818103600083015261358b8161354f565b9050919050565b7f4552433732313a20617070726f76616c20746f2063757272656e74206f776e6560008201527f7200000000000000000000000000000000000000000000000000000000000000602082015250565b60006135ee602183612d9f565b91506135f982613592565b604082019050919050565b6000602082019050818103600083015261361d816135e1565b9050919050565b7f4552433732313a20617070726f76652063616c6c6572206973206e6f74206f7760008201527f6e6572206e6f7220617070726f76656420666f7220616c6c0000000000000000602082015250565b6000613680603883612d9f565b915061368b82613624565b604082019050919050565b600060208201905081810360008301526136af81613673565b9050919050565b7f4552433732313a207472616e736665722063616c6c6572206973206e6f74206f60008201527f776e6572206e6f7220617070726f766564000000000000000000000000000000602082015250565b6000613712603183612d9f565b915061371d826136b6565b604082019050919050565b6000602082019050818103600083015261374181613705565b9050919050565b7f455243373231456e756d657261626c653a206f776e657220696e646578206f7560008201527f74206f6620626f756e6473000000000000000000000000000000000000000000602082015250565b60006137a4602b83612d9f565b91506137af82613748565b604082019050919050565b600060208201905081810360008301526137d381613797565b9050919050565b7f455243373231456e756d657261626c653a20676c6f62616c20696e646578206f60008201527f7574206f6620626f756e64730000000000000000000000000000000000000000602082015250565b6000613836602c83612d9f565b9150613841826137da565b604082019050919050565b6000602082019050818103600083015261386581613829565b9050919050565b7f4e487b7100000000000000000000000000000000000000000000000000000000600052603260045260246000fd5b7f4552433732313a206f776e657220717565727920666f72206e6f6e657869737460008201527f656e7420746f6b656e0000000000000000000000000000000000000000000000602082015250565b60006138f7602983612d9f565b91506139028261389b565b604082019050919050565b60006020820190508181036000830152613926816138ea565b9050919050565b7f4552433732313a2062616c616e636520717565727920666f7220746865207a6560008201527f726f206164647265737300000000000000000000000000000000000000000000602082015250565b6000613989602a83612d9f565b91506139948261392d565b604082019050919050565b600060208201905081810360008301526139b88161397c565b9050919050565b7f4f776e61626c653a2063616c6c6572206973206e6f7420746865206f776e6572600082015250565b60006139f5602083612d9f565b9150613a00826139bf565b602082019050919050565b60006020820190508181036000830152613a24816139e8565b9050919050565b6000606082019050613a406000830186612f7a565b613a4d6020830185612f7a565b8181036040830152613a5f8184612df4565b9050949350505050565b7f4572726f722c20796f7520617265206e6f7420746865206f776e657200000000600082015250565b6000613a9f601c83612d9f565b9150613aaa82613a69565b602082019050919050565b60006020820190508181036000830152613ace81613a92565b9050919050565b6000606082019050613aea6000830186612f7a565b613af76020830185612f7a565b613b046040830184612f7a565b949350505050565b6000604082019050613b216000830185612f7a565b613b2e6020830184612d6a565b9392505050565b7f4552433732313a20617070726f766520746f2063616c6c657200000000000000600082015250565b6000613b6b601983612d9f565b9150613b7682613b35565b602082019050919050565b60006020820190508181036000830152613b9a81613b5e565b9050919050565b7f45524337323155524953746f726167653a2055524920717565727920666f722060008201527f6e6f6e6578697374656e7420746f6b656e000000000000000000000000000000602082015250565b6000613bfd603183612d9f565b9150613c0882613ba1565b604082019050919050565b60006020820190508181036000830152613c2c81613bf0565b9050919050565b600081905092915050565b6000613c4982612d94565b613c538185613c33565b9350613c63818560208601612db0565b80840191505092915050565b6000613c7b8285613c3e565b9150613c878284613c3e565b91508190509392505050565b7f4f776e61626c653a206e6577206f776e657220697320746865207a65726f206160008201527f6464726573730000000000000000000000000000000000000000000000000000602082015250565b6000613cef602683612d9f565b9150613cfa82613c93565b604082019050919050565b60006020820190508181036000830152613d1e81613ce2565b9050919050565b7f4552433732313a206f70657261746f7220717565727920666f72206e6f6e657860008201527f697374656e7420746f6b656e0000000000000000000000000000000000000000602082015250565b6000613d81602c83612d9f565b9150613d8c82613d25565b604082019050919050565b60006020820190508181036000830152613db081613d74565b9050919050565b7f4552433732313a207472616e73666572206f6620746f6b656e2074686174206960008201527f73206e6f74206f776e0000000000000000000000000000000000000000000000602082015250565b6000613e13602983612d9f565b9150613e1e82613db7565b604082019050919050565b60006020820190508181036000830152613e4281613e06565b9050919050565b7f4552433732313a207472616e7366657220746f20746865207a65726f2061646460008201527f7265737300000000000000000000000000000000000000000000000000000000602082015250565b6000613ea5602483612d9f565b9150613eb082613e49565b604082019050919050565b60006020820190508181036000830152613ed481613e98565b9050919050565b7f4e487b7100000000000000000000000000000000000000000000000000000000600052601160045260246000fd5b6000613f1582612e4f565b9150613f2083612e4f565b925082821015613f3357613f32613edb565b5b828203905092915050565b6000613f4982612e4f565b9150613f5483612e4f565b9250827fffffffffffffffffffffffffffffffffffffffffffffffffffffffffffffffff03821115613f8957613f88613edb565b5b828201905092915050565b7f45524337323155524953746f726167653a2055524920736574206f66206e6f6e60008201527f6578697374656e7420746f6b656e000000000000000000000000000000000000602082015250565b6000613ff0602e83612d9f565b9150613ffb82613f94565b604082019050919050565b6000602082019050818103600083015261401f81613fe3565b9050919050565b7f4552433732313a207472616e7366657220746f206e6f6e20455243373231526560008201527f63656976657220696d706c656d656e7465720000000000000000000000000000602082015250565b6000614082603283612d9f565b915061408d82614026565b604082019050919050565b600060208201905081810360008301526140b181614075565b9050919050565b7f4552433732314d657461646174613a2055524920717565727920666f72206e6f60008201527f6e6578697374656e7420746f6b656e0000000000000000000000000000000000602082015250565b6000614114602f83612d9f565b915061411f826140b8565b604082019050919050565b6000602082019050818103600083015261414381614107565b9050919050565b7f4572726f722c2077726f6e6720746f6b656e4964000000000000000000000000600082015250565b6000614180601483612d9f565b915061418b8261414a565b602082019050919050565b600060208201905081810360008301526141af81614173565b9050919050565b7f4974656d206e6f74206c69737465642063757272656e746c7900000000000000600082015250565b60006141ec601983612d9f565b91506141f7826141b6565b602082019050919050565b6000602082019050818103600083015261421b816141df565b9050919050565b7f4572726f722c2074686520616d6f756e74206973206c6f776572000000000000600082015250565b6000614258601a83612d9f565b915061426382614222565b602082019050919050565b600060208201905081810360008301526142878161424b565b9050919050565b7f43616e206e6f7420627579207768617420796f75206f776e0000000000000000600082015250565b60006142c4601883612d9f565b91506142cf8261428e565b602082019050919050565b600060208201905081810360008301526142f3816142b7565b9050919050565b600081519050919050565b600082825260208201905092915050565b6000614321826142fa565b61432b8185614305565b935061433b818560208601612db0565b61434481612de3565b840191505092915050565b60006080820190506143646000830187612ee4565b6143716020830186612ee4565b61437e6040830185612f7a565b81810360608301526143908184614316565b905095945050505050565b6000815190506143aa81612d05565b92915050565b6000602082840312156143c6576143c5612ccf565b5b60006143d48482850161439b565b91505092915050565b60006143e882612e4f565b91507fffffffffffffffffffffffffffffffffffffffffffffffffffffffffffffffff82141561441b5761441a613edb565b5b600182019050919050565b7f4e487b7100000000000000000000000000000000000000000000000000000000600052601260045260246000fd5b600061446082612e4f565b915061446b83612e4f565b92508261447b5761447a614426565b5b828204905092915050565b600061449182612e4f565b915061449c83612e4f565b9250826144ac576144ab614426565b5b828206905092915050565b7f4e487b7100000000000000000000000000000000000000000000000000000000600052603160045260246000fd5b7f4552433732313a206d696e7420746f20746865207a65726f2061646472657373600082015250565b600061451c602083612d9f565b9150614527826144e6565b602082019050919050565b6000602082019050818103600083015261454b8161450f565b9050919050565b7f4552433732313a20746f6b656e20616c7265616479206d696e74656400000000600082015250565b6000614588601c83612d9f565b915061459382614552565b602082019050919050565b600060208201905081810360008301526145b78161457b565b905091905056fea264697066735822122013600334cbc470c7110c9e8b711676dfb9f6a3a202bd36fef0ddfc611ebed92664736f6c63430008090033",
  "immutableReferences": {},
  "source": "// contracts/MyNFT.sol\n// SPDX-License-Identifier: MIT\npragma solidity ^0.8.0;\n\nimport \"@openzeppelin/contracts/token/ERC721/extensions/ERC721Enumerable.sol\";\nimport \"@openzeppelin/contracts/access/Ownable.sol\";\nimport \"@openzeppelin/contracts/utils/math/SafeMath.sol\";\n\ncontract MyNFT is ERC721Enumerable, Ownable {\n    using SafeMath for uint256;\n    using Strings for uint256;\n\n    address payable public _contractOwner;\n\n    mapping (uint256 => uint256) public price;\n    mapping (uint256 => bool) public listedMap;\n    mapping(uint256 => string) private _tokenURIs;\n\n    event Purchase(address indexed previousOwner, address indexed newOwner, uint256 price, uint256 nftID, string uri);\n\n    event Minted(address indexed minter, uint256 price, uint256 nftID, string uri);\n\n    event PriceUpdate(address indexed owner, uint256 oldPrice, uint256 newPrice, uint256 nftID);\n\n    event NftListStatus(address indexed owner, uint256 nftID, bool isListed);\n\n    event Trade(uint256 nftID, uint256 sellerValue, uint256 commissionValue);\n\n    /**\n     * @dev See {IERC721Metadata-tokenURI}.\n     */\n    function tokenURI(uint256 tokenId) public view virtual override returns (string memory) {\n        require(_exists(tokenId), \"ERC721URIStorage: URI query for nonexistent token\");\n\n        string memory _tokenURI = _tokenURIs[tokenId];\n        string memory base = _baseURI();\n\n        // If there is no base URI, return the token URI.\n        if (bytes(base).length == 0) {\n            return _tokenURI;\n        }\n        // If both are set, concatenate the baseURI and tokenURI (via abi.encodePacked).\n        if (bytes(_tokenURI).length > 0) {\n            return string(abi.encodePacked(base, _tokenURI));\n        }\n\n        return super.tokenURI(tokenId);\n    }\n\n    /**\n     * @dev Sets `_tokenURI` as the tokenURI of `tokenId`.\n     *\n     * Requirements:\n     *\n     * - `tokenId` must exist.\n     */\n    function _setTokenURI(uint256 tokenId, string memory _tokenURI) internal virtual {\n        require(_exists(tokenId), \"ERC721URIStorage: URI set of nonexistent token\");\n        _tokenURIs[tokenId] = _tokenURI;\n    }\n\n    /**\n     * @dev Destroys `tokenId`.\n     * The approval is cleared when the token is burned.\n     *\n     * Requirements:\n     *\n     * - `tokenId` must exist.\n     *\n     * Emits a {Transfer} event.\n     */\n    function _burn(uint256 tokenId) internal virtual override {\n        super._burn(tokenId);\n\n        if (bytes(_tokenURIs[tokenId]).length != 0) {\n            delete _tokenURIs[tokenId];\n        }\n    }\n\n    constructor(string memory name_, string memory symbol_) ERC721(name_, symbol_) {\n        _contractOwner = payable(msg.sender);\n    }\n\n    function decimals() public view virtual returns (uint8) {\n        return 0;\n    }\n\n    function contractOwner() public view virtual returns (address) {\n        return _contractOwner;\n    }\n\n    function mint(uint256 _tokenId, string memory _tokenURI, address _toAddress, uint256 _price) public returns (uint256) {\n        price[_tokenId] = _price;\n        listedMap[_tokenId] = true;\n\n        _safeMint(_toAddress, _tokenId);\n        _setTokenURI(_tokenId, _tokenURI);\n\n        emit Minted(_toAddress, _price, _tokenId, _tokenURI);\n\n        return _tokenId;\n    }\n\n    function buy(uint256 _id) external payable {\n        _validate(_id);\n\n        address _previousOwner = ownerOf(_id);\n        address _newOwner = msg.sender;\n\n        _trade(_id);\n\n        emit Purchase(_previousOwner, _newOwner, price[_id], _id, tokenURI(_id));\n    }\n\n    function _validate(uint256 _id) internal {\n        bool isItemListed = listedMap[_id];\n        require(_exists(_id), \"Error, wrong tokenId\");\n        require(isItemListed, \"Item not listed currently\");\n        require(msg.value >= price[_id], \"Error, the amount is lower\");\n        require(msg.sender != ownerOf(_id), \"Can not buy what you own\");\n    }\n\n    function _trade(uint256 _id) internal {\n        address payable _buyer = payable(msg.sender);\n        address payable _owner = payable(ownerOf(_id));\n\n        _safeTransfer(_owner, _buyer, _id, \"\");\n\n        // 1% commission cut\n        uint256 _commissionValue = price[_id].div(100) ;\n        uint256 _sellerValue = price[_id].sub(_commissionValue);\n\n        _owner.transfer(_sellerValue);\n        _contractOwner.transfer(_commissionValue);\n\n        // If buyer sent more than price, we send them back their rest of funds\n        if (msg.value > price[_id]) {\n            _buyer.transfer(msg.value.sub(price[_id]));\n        }\n\n        listedMap[_id] = false;\n\n        emit Trade(_id, _sellerValue, _commissionValue);\n    }\n\n    function updatePrice(uint256 _tokenId, uint256 _price) public returns (bool) {\n        uint256 oldPrice = price[_tokenId];\n        require(msg.sender == ownerOf(_tokenId), \"Error, you are not the owner\");\n        price[_tokenId] = _price;\n\n        emit PriceUpdate(msg.sender, oldPrice, _price, _tokenId);\n        return true;\n    }\n\n    function updateListingStatus(uint256 _tokenId, bool shouldBeListed) public returns (bool) {\n        require(msg.sender == ownerOf(_tokenId), \"Error, you are not the owner\");\n\n        listedMap[_tokenId] = shouldBeListed;\n\n        emit NftListStatus(msg.sender, _tokenId, shouldBeListed);\n\n        return true;\n    }\n}\n",
  "sourcePath": "/home/alex/smart-contracts/contracts/MyNFT.sol",
  "compiler": {
    "name": "solc",
    "version": "0.8.9+commit.e5eed63a.Emscripten.clang"
  },
  "schemaVersion": "3.4.3",
  "updatedAt": "2022-01-11T15:07:28.406Z",
  "devdoc": {
    "kind": "dev",
    "methods": {
      "approve(address,uint256)": {
        "details": "See {IERC721-approve}."
      },
      "balanceOf(address)": {
        "details": "See {IERC721-balanceOf}."
      },
      "getApproved(uint256)": {
        "details": "See {IERC721-getApproved}."
      },
      "isApprovedForAll(address,address)": {
        "details": "See {IERC721-isApprovedForAll}."
      },
      "name()": {
        "details": "See {IERC721Metadata-name}."
      },
      "owner()": {
        "details": "Returns the address of the current owner."
      },
      "ownerOf(uint256)": {
        "details": "See {IERC721-ownerOf}."
      },
      "renounceOwnership()": {
        "details": "Leaves the contract without owner. It will not be possible to call `onlyOwner` functions anymore. Can only be called by the current owner. NOTE: Renouncing ownership will leave the contract without an owner, thereby removing any functionality that is only available to the owner."
      },
      "safeTransferFrom(address,address,uint256)": {
        "details": "See {IERC721-safeTransferFrom}."
      },
      "safeTransferFrom(address,address,uint256,bytes)": {
        "details": "See {IERC721-safeTransferFrom}."
      },
      "setApprovalForAll(address,bool)": {
        "details": "See {IERC721-setApprovalForAll}."
      },
      "supportsInterface(bytes4)": {
        "details": "See {IERC165-supportsInterface}."
      },
      "symbol()": {
        "details": "See {IERC721Metadata-symbol}."
      },
      "tokenByIndex(uint256)": {
        "details": "See {IERC721Enumerable-tokenByIndex}."
      },
      "tokenOfOwnerByIndex(address,uint256)": {
        "details": "See {IERC721Enumerable-tokenOfOwnerByIndex}."
      },
      "tokenURI(uint256)": {
        "details": "See {IERC721Metadata-tokenURI}."
      },
      "totalSupply()": {
        "details": "See {IERC721Enumerable-totalSupply}."
      },
      "transferFrom(address,address,uint256)": {
        "details": "See {IERC721-transferFrom}."
      },
      "transferOwnership(address)": {
        "details": "Transfers ownership of the contract to a new account (`newOwner`). Can only be called by the current owner."
      }
    },
    "version": 1
  },
  "userdoc": {
    "kind": "user",
    "methods": {},
    "version": 1
  }
}